:020000040800F2
:10000000E8040020450100088B0200083B020008BC
:10001000890200088D0100086B0400080000000040
:10002000000000000000000000000000A90200081D
:100030008F010008000000008D0200086D03000819
:100040005F0100085F0100085F0100085F01000810
:100050005F0100085F0100085F0100085F01000800
:100060005F0100085F0100085F0100085F010008F0
:100070005F0100085F0100085F0100085F010008E0
:100080005F0100085F0100085F0100085F010008D0
:100090005F0100085F0100085F0100085F010008C0
:1000A0005F0100085F0100085F0100085F010008B0
:1000B0005F0100085F0100085F0100085F010008A0
:1000C0005F0100085F0100085F0100085F01000890
:1000D0005F010008C10300085F0100085F0100081C
:1000E0005F0100085F0100085F0100085F01000870
:1000F0005F0100085F0100085F0100085F01000860
:100100005F0100085F0100085F0100085F0100084F
:100110005F0100085F0100085F0100085F0100083F
:100120005F0100085F0100085F0100085F0100082F
:10013000DFF80CD000F018F800480047FD04000874
:10014000E80400200648804706480047FEE7FEE72F
:10015000FEE7FEE7FEE7FEE7FEE7FEE7FEE7FEE777
:100160007103000831010008064C074D06E0E06805
:1001700040F0010394E8070098471034AC42F6D3EE
:10018000FFF7DAFF3C0500085C050008FEE7704752
:10019000F0B5CA78002502F00F03D20601D58A789F
:1001A00013430A784FF00F0E12F0FF0F4FF00102C9
:1001B0001CD004680F8802FA05F63740B74211D107
:1001C0004FEA850C0EFA0CF724EA070703FA0CF441
:1001D0003C43CF78282F02D0482F02D002E046615E
:1001E00000E006616D1C082DE4D304600C88FF2C30
:1001F0001ED944685FF0000606F1080702FA07F509
:100200000F882F40AF420FD14FEA860C0EFA0CF741
:10021000BC4303FA0CF73C43CF78282F00D145614B
:10022000CF78482F00D10561761C082EE4D34460B6
:10023000F0BD4161704701617047FEE738B50121AB
:10024000102000F025F80120ADF8000010208DF8F6
:10025000030003200B4C8DF8020069462046FFF78F
:1002600097FF01212046FFF7E4FF0220ADF80000D0
:1002700069462046FFF78CFF02212046FFF7D9FF91
:1002800038BD000000100140FEE7704770470000D5
:10029000044A0029916901D0014300E08143916142
:1002A0007047000000100240704700000CB50021AC
:1002B000264801910091026842F4803202604FF4B6
:1002C000A063026802F400320092019A521C01926B
:1002D000009A12B9019A9A42F3D10268920333D577
:1002E000012100911A490A6842F010020A600A6866
:1002F00022F003020A600A6842F002020A604168C2
:10030000416041684160416841F4806141604168F9
:1003100021F47C114160416841F4E81141600168B9
:1003200041F08071016001688901FCD5416821F0CC
:1003300003014160416841F0020141604168C1F33D
:1003400081010229FAD10CBD00910CBD00100240C0
:10035000002002404FF0E0210428086903D020F07B
:1003600004000861704740F00400FAE7704700009D
:100370000F4810B5016841F00101016041680D4A64
:100380001140416001680C4A11400160016821F48C
:1003900080210160416821F4FE0141604FF41F019A
:1003A0008160FFF783FF05494FF00060086010BDD2
:1003B000001002400000FFF8FFFFF6FE08ED00E02D
:1003C00070B5154C40F22551204600F02BF800285E
:1003D0000ED0204600F045F8C2B2104801880B0448
:1003E00006D44C044FF0000306D50A2A01D003803E
:1003F00070BD41F400410DE00D2A09D0C1F30D0498
:10040000074D491C89B22A550180C729EFD870BD14
:1004100041F48041018070BD003801401800002087
:100420001C00002030B501F01F0201240025C1F39B
:10043000421304FA02F2012B0FD0022B0FD0838A51
:100440004FEA11210088134204FA01F400EA040083
:1004500001D000B10125284630BD8389F0E7038A29
:10046000EEE78088C0F308007047FEE702E008C8A6
:10047000121F08C1002AFAD170477047002001E01E
:1004800001C1121F002AFBD17047000010B56FF0A8
:100490000400FFF75FFF094809490068B0FBF1F06D
:1004A000C1B2084801EB41020170C2EBC1114FF625
:1004B000FF7202EAC101418010BD0000000000206F
:1004C00000127A00140000200B49498848434FF07D
:1004D000E021486100228A61086940F0010008615A
:1004E0000869C30701D0C003FAD5086920F00100EC
:1004F00008618A617047000014000020FFF7C6FF02
:10050000FFF79CFE0C4C4FF47A752846FFF7DCFF92
:1005100002212046FFF78FFE01212046FFF78BFEC8
:100520002846FFF7D1FF01212046FFF782FE022176
:100530002046FFF77EFEE8E7001001405C0500085A
:10054000000000201C0000006C0400087805000872
:100550001C000020CC0400007C04000800A24A0417
:100560000000000000000000010203040607080963
:08057000000000000000000083
:0400000508000131BD
:00000001FF
