:020000040800F2
:10000000D01B002045010008711E00089111000856
:10001000251B00085D0C0008573D0008000000008B
:10002000000000000000000000000000BD240008E7
:10003000B10C000800000000392100085D2A00080A
:100040005F0100085F0100085F0100085F01000810
:100050005F0100085F0100085F0100085F01000800
:100060005F0100085F0100085F0100085F010008F0
:100070005F0100085F0100085F0100085F010008E0
:100080005F0100085F0100085F0100085F010008D0
:100090005F0100085F0100085F0100085F010008C0
:1000A0005F0100085F0100085F0100085F010008B0
:1000B0005F010008592D00085F0100085F0100087A
:1000C0005F0100085F0100085F0100085F01000890
:1000D0005F0100083138000835380008A9380008E9
:1000E0005F0100085F0100085F0100085F01000870
:1000F000592F00085F0100085F0100085F01000838
:100100005F0100085F0100085F0100085F0100084F
:1001100059360008D9360008112E0008C12E0008F3
:100120005F0100085F0100085F0100085F0100082F
:10013000DFF80CD000F022FC00480047814800089E
:10014000D01B00200648804706480047FEE7FEE730
:10015000FEE7FEE7FEE7FEE7FEE7FEE7FEE7FEE777
:10016000612A000831010008D2B201E000F8012B39
:10017000491EFBD270470022F6E710B513460A4627
:1001800004461946FFF7F0FF204610BD30B505467E
:100190002A460B4612F8010B13F8014B08B1A04296
:1001A000F8D01CB1002802D06D1CF1E7284630BD04
:1001B000421C10F8011B0029FBD1801A7047F0B4D3
:1001C00080EA0102D40F4200B2EB410F02D2024694
:1001D000084611464A0042D0C30DDDB2C1F3C752F2
:1001E000AD1A202D35DAC1F3160141F4000204B135
:1001F0005242C5F1200602FA06F12A411044B3EB3F
:10020000D05F23D0C4B1012DA0EBC35009DCF0BCFA
:100210004FF0004202EAC352DBB200F5000000F0EA
:10022000D9B9400000F1807000EBC350A0F180709C
:1002300040EAD170490009E0490841EAC071A0EBE9
:10024000C35000F50000400800EBC350F0BC00F0C4
:10025000B8B96142012202EB4101001BF6E7F0BC94
:10026000704781F00041AAE780F00040A7E780EAEC
:10027000010210B502F00043400022D04A001FD016
:10028000010E01EB1261C0F35600C2F3560240F4B6
:10029000000042F40002A0FB022000047F39140495
:1002A00000D0401C50EA124001D44000491EC2B2A6
:1002B0000C0604EBD010401C4008802A02D003E05A
:1002C000002010BD20F00100002900DA00201843B2
:1002D00010BD30B480EA010202F0004530F0004267
:1002E00021F0004013D090B1C30DD40DC2F316011C
:1002F000C0F31600E41A41F4000140F400027D341A
:10030000914201D3641C00E04900002C02DA30BCA9
:10031000002070474FF400000023914201D3891A56
:10032000034340084FEA4101F7D151B1914202D154
:100330004FF0004105E002D24FF0010101E06FF003
:10034000010103EBC450284430BC00F03AB92DE958
:10035000F04D81EA030404F0004B21F000451446FF
:100360004FF0000A23F0004150EA050220D054EA81
:1003700001021DD0C5F30A570246C5F31303C1F3AA
:100380001300C1F30A5640F4801543F48013A7EB21
:100390000608101BD64608F2FD3873EB050002D3A1
:1003A00008F1010801E092185B41B8F1000F03DA8F
:1003B00000200146BDE8F08D00204FF48011064674
:1003C00084460EE0171B73EB050705D3121B63EB86
:1003D000050306434CEA010C49084FEA3000921825
:1003E0005B4150EA0107EDD152EA030012D082EAE4
:1003F000040083EA0501084305D0101BAB4106D277
:100400000122002306E000224FF0004302E06FF0DB
:10041000010253101AEB06004CEB085110EB0A00D6
:1004200041EB0B01BDE8F04D00F002B9C10F80EACD
:10043000E0700844CA079623002100F0CBB8962349
:100440000022114600F0C6B80EB540F233410291C9
:100450000021CDE900110A460B4600F0F8F803B080
:1004600000BD70B5C1F30A5201F000450024C1F38C
:10047000130140F2FF3341F480119A4201DA002067
:1004800070BD40F233439A42A2F2334203DC52423F
:1004900000F087F800E090402C43F1D0404270BD5E
:1004A00000F0004230F000400AD0C10D01F560714B
:1004B000C0F3160042EA0151C208400711437047D9
:1004C00000200146704701F0004330B421F00041A4
:1004D00050EA010206D00A0DA2F56072C1F31301C1
:1004E000002A02DC30BC00207047440F44EAC104FB
:1004F000C100E01830BC00EBC25000F062B8000050
:10050000002801DBC0F10040002901DBC1F10041FE
:100510008142704730B50B4601460020202201245D
:1005200009E021FA02F59D4205D303FA02F5491BC1
:1005300004FA02F52844151EA2F10102F1DC30BDD7
:100540002DE9F05F0546002092469B468846064608
:10055000814640241BE0284641464746224600F09B
:1005600020F853465A46C01A914110D311461846F6
:10057000224600F015FA2D1A67EB01084F46224675
:100580000120002100F00CFA17EB00094E41201E5B
:10059000A4F10104DFDC484631462A464346BDE863
:1005A000F09F202A04DB203A21FA02F00021704754
:1005B00021FA02F3D040C2F12002914008431946CB
:1005C00070470029A8BF7047401C490008BF20F0B1
:1005D0000100704710B4B0FA80FC00FA0CF050EA49
:1005E000010404BF10BC704749B1CCF1200421FACA
:1005F00004F411FA0CF118BF012121430843A3EBC5
:100600000C01CB1D4FEA00614FEA102042BF0020D1
:1006100010BC704700EBC35010440029A4BF10BCAD
:100620007047401C490008BF20F0010010BC704713
:1006300010B5141E73F1000408DA401C41F10001EA
:1006400092185B411A4301D120F0010010BD2DE941
:10065000F04D92469B4611B1B1FA81F202E0B0FA38
:1006600080F22032904600F09BF904460F4640EAA3
:100670000A0041EA0B0153465A46084313D011467B
:1006800053EA010019D0C8F140025046FFF789FF34
:1006900005460E4650465946424600F081F9084349
:1006A00005D0012004E020463946BDE8F08D002049
:1006B000054346EAE0762C4337430A986305E40A8B
:1006C000A0EB08000022FD0A44EA47540A3002D594
:1006D00000200146E9E7010510196941DDE90845F7
:1006E00000196941BDE8F04DA2E72DE9FE4F8046B3
:1006F00081EA0300C00F0C46009021F0004123F076
:100700000045B8EB0200A94105D24046214690467B
:100710001C460B46024623F00040104347D0270DED
:10072000C7F30A00C3F30A510290401A019040280F
:100730006BDAC3F3130040F4801B0098924620B19B
:100740000023D2EB030A63EB0B0B01985946C0F16F
:100750004002504600F024F906460D4650465946E0
:10076000019A00F02CF910EB08006141002487EA9F
:10077000115284EAE7731A4340D0009A62B3019A97
:10078000012A4FEA075215DC001B61EB02014FF012
:10079000004202EA0752CDE90042001C41F58011F7
:1007A00032462B46FFF753FF03B0BDE8F08F4046BB
:1007B0002146F9E7001B61EB0201001C41F58013A3
:1007C00000185B412018A2F5001747EB030140EA2F
:1007D000D570B6196D4111E06D084FEA360645EA4D
:1007E000C0754FEA0752001B61EB0201001C41F586
:1007F000801149084FEA30000019514132462B461A
:1008000003B0BDE8F04FFFF713BF0098012240008E
:100810000023D0EB020263EBE073009821464FEA1D
:10082000E074B8EB000061EB0401E9E783F00043FA
:100830005BE781F0004158E72DE9FE4F81EA0304B0
:1008400004F0004421F0004100944FF0000B23F02D
:10085000004350EA01045ED052EA03045BD0C3F3C4
:100860000A54C1F30A552C44A4F2F3340194A0FBBA
:100870000254C1F3130141F48011C3F3130343F491
:10088000801301FB024400FB034E840A970A44EAEA
:10089000815447EA8357A4FB076802958D0A05FB3C
:1008A00007854FEA932C04FB0C542705029D4FEA61
:1008B000065847EA1637B5EB08056EEB070C870EAE
:1008C000920E47EA811742EA8312A7FB0201B6EBB8
:1008D0000B0164EB00042B0D43EA0C335E1844EB70
:1008E0001C50DA465146E7FB0201C5F313044FEAF8
:1008F0000B3343EA14534FEA0432019C43EA0603E4
:10090000A4F10C040294009CCDE900B4FFF79FFE13
:1009100003B0BDE8F08F00200146F9E7C1F30A52A9
:10092000C1F3130140F2FF3341F480119A4202DA1D
:1009300000200146704740F233439A42A2F233420C
:1009400002DC5242FFF72DBE00F02AB830B5041E7B
:1009500071F1000404DB4FF00044404264EB0101FC
:10096000141E73F1000405DB1C464FF00043524295
:1009700063EB0403994208BF904230BD064C074D1B
:1009800006E0E06840F0010394E80700984710345F
:10099000AC42F6D3FFF7D0FB60DE010880DE010831
:1009A000202A04DB203A00FA02F10020704791402F
:1009B000C2F1200320FA03F3194390407047202A24
:1009C00006DBCB17203A41FA02F043EAE07306E077
:1009D00041FA02F3D040C2F1200291400843194687
:1009E000704770B58D1810F8014B14F0030201D157
:1009F00010F8012B231106D110F8013B03E010F889
:100A0000016B01F8016B521EF9D1ABB110F8012B4B
:100A100004F00C048A1A0C2C03D0A2EB84129B1C49
:100A200008E010F8014BA2EB0422F8E712F8014BA2
:100A300001F8014B5B1EF9D5A942D4D3002070BD4B
:100A40002DE9FC5F82460C465348407818B10021DE
:100A5000524802F0C4FA002051490870012C06D017
:100A6000022C0BD0032C10D0042C1CD114E04D48C8
:100A700041695046FFF7F5FB019015E04948C1690F
:100A80005046FFF7EEFB01900EE04648416A5046A3
:100A9000FFF7E7FB019007E04248C16A5046FFF7C5
:100AA000E0FB019000E000BF00BF3E490988C8227A
:100AB00001FB02F0FFF7BAFC00900199FFF7D7FBAA
:100AC0008346FFF7EDFC07460022374BFFF73FFC5C
:100AD0000546FFF7C6FC8146012C26D1B9F1000F6F
:100AE00003DB01203149086004E0C9F1000900205E
:100AF0002E49086002202E49088000202C49103120
:100B00000880091D0880091D08802A480068401EC9
:100B1000294951F82000C0F34F0025490C310880C5
:100B20004946204601F0CCFC28E0022C26D1B9F140
:100B3000000F08DB01201D49091D086019480C3011
:100B400050F834A01AE0C9F1000900201749091D26
:100B50000860022016490880002015490C310880E1
:100B6000134914310880091D08804FF47A70104928
:100B7000103108804946204601F0A2FC09480C309B
:100B800040F834A00448407818B10121034802F02D
:100B900026FABDE8FC9F0000840000200010004001
:100BA000400300204403002000807640B0812142B1
:100BB00028340140D80400207803002070B5044692
:100BC0000D46201F05281CD2DFE800F003080D1297
:100BD000170040F21A400E49088012E040F6020069
:100BE0000B4908800DE040F221700949088008E0B7
:100BF00040F698000649088003E0C82004490880B0
:100C000000BF00BF1DB14FF4E17003F091FD70BD56
:100C1000342C014008B50121102001F0AFFA012069
:100C2000ADF8000010208DF8030001208DF80200BF
:100C30006946094800F098F90121074800F073FA65
:100C40000220ADF800006946034800F08DF902214A
:100C5000014800F068FA08BD0010014000BFFEE73F
:100C600010B500F049F904462146032000F0DEF8F3
:100C700004462246094801680948006800F01AF84D
:100C80000446234607480268074801680748006889
:100C900000F062F80446204610BD0000F805002070
:100CA000F40500200406002000060020FC050020BA
:100CB00070470000F0B599B004460D461646002E68
:100CC00027D02B46224614A1684603F06BF8192260
:100CD00016A1684601F0E4FC07465FB114A2E021CA
:100CE000052000F03DFC4FF47A7003F021FD012057
:100CF00019B0F0BD12A2E021052000F031FC4FF444
:100D00007A7003F015FD4FF47A7003F011FD0020A6
:100D1000EEE70020ECE7000041542B43574A4150D6
:100D20003D222573222C2225732200004F4B000008
:100D30005769466920436F6E6E6563746564210070
:100D40005769466920556E61626C6520436F6E6E0F
:100D500065637465642100002DE9F041B4B0044678
:100D60000D4616461F4664211BA8FFF704FA002F04
:100D700030D02B46224618A11BA8009603F012F88B
:100D80001BAA19A102A803F00DF819221AA102A8A2
:100D900001F086FC8046B8F1000F0CD017A2F521B7
:100DA000052000F0DDFB4FF47A7003F0C1FC012058
:100DB00034B0BDE8F08116A2F521052000F0D0FB8B
:100DC0004FF47A7003F0B4FC4FF47A7003F0B0FC87
:100DD0000020EDE70020EBE7222573222C2225736B
:100DE000222C25730000000041542B4349505354DA
:100DF0004152543D257300004F4B000053657276FD
:100E0000657220436F6E6E65637465642100000037
:100E100053657276657220556E61626C6520436F12
:100E20006E6E6563746564210000000070B5054650
:100E30000E46002E38D035B1012D0BD0022D10D02A
:100E4000032D17D114E00A2218A119A001F028FCE3
:100E5000044611E00A2215A118A001F021FC044665
:100E60000AE00A2211A118A001F01AFC044603E0CE
:100E7000012401E0002400BF00BF34B115A2CB2142
:100E8000052000F06DFB012070BD17A2CB210520CD
:100E900000F066FB4FF47A7003F04AFC4FF47A706E
:100EA00003F046FC0020EFE70020EDE74F4B000089
:100EB00041542B43574D4F44453D310041542B4342
:100EC000574D4F44453D320041542B43574D4F44FD
:100ED000453D33004D6F6465205365742053756341
:100EE00063657373210000004D6F64652053657462
:100EF000204661696C21000010B50A220DA10EA0E8
:100F000001F0CEFB044634B10CA2B621052000F05E
:100F100027FB012010BD0EA2B621052000F020FB0A
:100F20004FF47A7003F004FC4FF47A7003F000FC85
:100F30000020EFE74F4B000041540000455350386C
:100F400032363620446574656374656421000000A0
:100F500045535038323636204E6F742044657465E0
:100F600063746564210000002DE9F041024600250C
:100F70000026002000230024002791F803C00CF075
:100F80000F0591F803C00CF0100CBCF1000F03D05A
:100F900091F802C04CEA050591F800C0BCF1000FC1
:100FA00031D0146800202BE04FF0010C0CFA00F354
:100FB000B1F800C00CEA03069E4220D183004FF036
:100FC0000F0C0CFA03F7BC4305FA03FC4CEA0404CB
:100FD00091F803C0BCF1280F06D14FF0010C0CFAB8
:100FE00000FCC2F814C00AE091F803C0BCF1480F3D
:100FF00005D14FF0010C0CFA00FCC2F810C0401CE7
:101000000828D1D31460B1F800C0BCF1FF0F34DD63
:10101000546800202EE000F1080C4FF0010808FA97
:101020000CF3B1F800C00CEA03069E4221D1830004
:101030004FF00F0C0CFA03F7BC4305FA03FC4CEA23
:10104000040491F803C0BCF1280F05D100F1080C8D
:1010500008FA0CF8C2F8148091F803C0BCF1480FEC
:1010600007D100F1080C4FF0010808FA0CF8C2F89B
:101070001080401C0828CED35460BDE8F0810000E9
:10108000F0B50A46002300240021002500F00046A8
:10109000B6F1004F02D11D4EF16901E01B4E71689F
:1010A000C0F3034583B200F44016B6F5401F08D1E3
:1010B00021F07061154E766826F07066134F7E60E1
:1010C00012E000F48016B6F5801F06D1032606FA5A
:1010D00005F4A14341F0706106E0460D360103FAC4
:1010E00006F6B14341F0706122B1460D360103FAB4
:1010F00006F6314300F00046B6F1004F02D1034E30
:10110000F16101E0014E7160F0BD0000000001409E
:101110000246002093680B400BB1012000E0002044
:101120007047416170470161704770B504460D46D4
:1011300016460121284600F0CBFC0021042000F0D7
:1011400095FD01210420FFF739FD0021084600F03C
:101150008DFD0121084600F03BFE092C04D1002141
:101160000A2000F083FD05E00A2C03D100210220B3
:1011700000F07CFD4FF4C87003F0DAFA012106207C
:10118000FFF71CFD1EB10021084600F021FE70BDD6
:1011900000BFFEE770B505460C460021204600F072
:1011A00097FC00200549487105E002F0FDF80A208F
:1011B00003F0BEFA00E0F8E700BF70BD8400002035
:1011C00008B50121102000F0D9FF48208DF8030058
:1011D0000420ADF8000069460148FFF7C5FE08BDD0
:1011E0000010014010B5052003F0A2FA04211748B1
:1011F000FFF78EFF68B9042003F09AFA0421134820
:10120000FFF786FF00BB12480068401C10490860C9
:101210001AE004210D48FFF77BFF012814D10C4888
:101220000068032807D90A480068322803D2002042
:101230000749086010BD06480068782804D90020D6
:10124000034908600120F5E70220F3E700100140A0
:101250004002002010B5FFF7C5FF044624B1012C61
:1012600006D0022C09D107E001200749087008E0E8
:1012700001200549487004E003E0044801F002FA47
:1012800000BF00BF10BD000084000020244E0108F4
:1012900010B52A488089401E83B228484089401EE4
:1012A00082B20021084600F091FA254800884FF6E6
:1012B000BF710840224908800846008840F4006059
:1012C00008800846008840F04000088010201D4932
:1012D000086000240BE0194880881949888100BF04
:1012E0001748008900F002000028F9D0641C134858
:1012F0004089124989894843A042ECD800BF104870
:10130000008900F080000028F9D110200D49091F44
:1013100008600B4800884FF6BF71084008490880F4
:10132000084600884FF2FF710840054908800846CA
:10133000008840F04000088010BD0000BC1700206D
:1013400000300140140C01402DE9F04106460F46E3
:1013500014461D467819401E83B23019401E82B2D1
:101360003946304600F032FA244800884FF6BF7103
:101370000840224908800846008840F40060088040
:101380000846008840F04000088010201C49086092
:101390004FF000080EE01B4880881849888100BF84
:1013A0001648008900F002000028F9D008F1010079
:1013B0001FFA80F804FB05F04045ECDC00BF0F4845
:1013C000008900F080000028F9D110200C49091F85
:1013D00008600A4800884FF6BF7108400749088036
:1013E000084600884FF2FF7108400449088008460B
:1013F000008840F040000880BDE8F08100300140E6
:10140000140C0140BC17002008B50DE0002100912C
:1014100004E0BDF80010491C89B20091BDF800102D
:1014200041F288329142F4DB011EA0F10100EDD1BE
:1014300008BD00002DE9F05F0746884614460025E8
:10144000A9460026AA46A4F12000C4B210202D49C6
:10145000086000BF34E02C48006800682A49096829
:10146000098904FB015110F801B04FF0000921E097
:101470000BF0010028B125480088254921F8160005
:1014800004E022488088224921F816004FEA6B0BBD
:10149000701C86B20AF101001FFA80FA1A4800682F
:1014A0008088504502D14FF0000A06E009F10100A2
:1014B0001FFA80F9B9F1080FDADB00BF681C85B2AA
:1014C000114800680089A842C5DC0F480068C08840
:1014D0004044401E83B20C48006880883844401E57
:1014E00082B24146384600F071F9074800688088AA
:1014F000054A1268D288504381B2054800F03CFA90
:10150000BDE8F09F140C0140B4010020BC1700207E
:10151000BC0F00202DE9FF4106460F4614461D462C
:101520000B48007A30B923462A460AA1684602F0E1
:1015300039FC05E023462A4608A1684602F032FC41
:101540006A463946304600F00BF8BDE8FF810000DE
:10155000BC17002025302E2A64000000252A6400D4
:1015600070B505460E4614460AE0227831462846F4
:10157000FFF760FF064800688088284485B2641C35
:1015800004484089A84202DD20780028EDD170BDD2
:10159000B4010020BC1700202DE9F04F87B00546AC
:1015A0000F46144698460595B9460026002004903B
:1015B0000390824683464FF48060B0FBF8FB00BF87
:1015C0007AE00020049034E0109800780690002023
:1015D000039023E0069800F0010028B13948008804
:1015E000394921F81A0004E036488088364921F844
:1015F0001A000698401006900598401C80B205908D
:101600000AF101001FFA80FA0598401BA04201D19F
:10161000059506E00398401C80B2039003980828C3
:10162000D8DB00BF1098401C10900498401C80B27A
:1016300004902046FEF703FF4FF082410090FEF732
:1016400048FE02900498FEF7FAFE01900299FEF718
:1016500057FFB9D30BFB04F0504516D14FF0000AE9
:1016600009EB0B00401E83B22819401E82B2494686
:10167000284600F0ABF804FB0BF081B2124800F0F2
:101680007BF909EB0B001FFA80F9701C404511D162
:10169000F01983B22819401E82B24946284600F04C
:1016A00095F8701C3844A0EB0900604381B20648ED
:1016B00000F062F9701C86B2464582DB07B0BDE8D7
:1016C000F08F0000BC170020BC0F002008B50121DE
:1016D000082000F053FD0121084600F04FFD0121D4
:1016E0002148FFF7CDFC01210846FFF7C9FC18206F
:1016F0008DF8030003208DF802000820ADF80000EB
:1017000069461A48FFF730FC2020ADF80000694612
:101710001648FFF729FC10208DF8030003208DF8F0
:1017200002001020ADF8000069461048FFF71CFCCD
:101730004020ADF8000069460C48FFF715FC8020FA
:10174000ADF8000069460948FFF70EFC4021074844
:10175000FFF7E9FC1020054910310860802103489B
:10176000FFF7DFFC08BD000000023000000C014064
:1017700000B585B00121080300F000FD4FF44040A2
:10178000ADF800004FF48270ADF802000020ADF813
:101790000400ADF80600ADF808004FF40070ADF895
:1017A0000A000820ADF80C000020ADF80E0007205C
:1017B000ADF810006946044800F076FD01210248AA
:1017C00000F066FD05B000BD003001402DE9F0419C
:1017D00004460D4616461F461020184908602A2068
:1017E00000F014F91649897B214488B200F034F9DD
:1017F0001349897B314488B200F02EF92B2000F088
:1018000005F90F49C97B294488B200F025F90C4934
:10181000C97B394488B200F01FF92C2000F0F6F89B
:1018200000BF0848008900F080000028F9D110208E
:101830000249091F0860BDE8F0810000140C014056
:10184000BC170020003001400149086070470000CB
:10185000B401002030B500230021002200F47804F8
:10186000230A00F47C446109C0F3C40243EA010482
:101870001443014D6C6030BDBC17002030B500230F
:101880000021002200F47804230A00F47C4461095A
:10189000C0F3C40243EA01041443014D2C6030BD7F
:1018A000BC17002010B504462D48447210202D4965
:1018B000086084B9362000F0A9F8702000F0E2F842
:1018C0001420274988730020C8734FF48C70488116
:1018D000F020888137E0022C10D1362000F096F8F5
:1018E000002000F0CFF800201D4988731420C87331
:1018F000F02048814FF48C70888124E0012C10D1B5
:10190000362000F083F8A02000F0BCF81420144921
:1019100088730020C8734FF48C704881F020888150
:1019200011E0032C0FD1362000F070F8C02000F039
:10193000A9F800200A4988731420C873F020488150
:101940004FF48C70888100BF0748008900F0800048
:101950000028F9D110200349091F086010BD0000BC
:10196000BC170020140C01400030014001490872EE
:1019700070470000BC17002010B50246214B1B88A1
:101980004FF6BF7423401F4C238023461B8843F42B
:101990000063238023461B8843F0400323801023E9
:1019A000194C236000200BE032F81030154CA38155
:1019B00000BF144B1B8903F00203002BF9D0401C1D
:1019C0008842F1D300BF0F4B1B8903F08003002B2B
:1019D000F9D110230C4C241F23600A4B1B884FF6AF
:1019E000BF742340074C238023461B884FF2FF74AB
:1019F0002340044C238023461B8843F0400323806C
:101A000010BD000000300140140C014010B5044628
:101A100000BF0F48008900F080000028F9D1402164
:101A20000C48FFF77EFB0A48848100BF0848008904
:101A300000F002000028F9D000BF0548008900F03E
:101A400080000028F9D140210248FFF76CFB10BD4F
:101A500000300140000C01400112094A918100BF91
:101A60000749098901F002010029F9D00449888158
:101A700000BF0349098901F002010029F9D070472C
:101A8000003001400449888100BF0349098901F001
:101A900002010029F9D070470030014008B501214A
:101AA000082000F06BFB0420ADF8000010208DF83A
:101AB000030001208DF8020069460448FFF754FA3C
:101AC00004210248FFF72FFB08BD0000000C014075
:101AD00070B505460C46012D06D0022D09D0032D08
:101AE0000CD0052D14D10EE040F267200C4908807F
:101AF0000EE040F2CD500A49088009E040F2DC5087
:101B00000749088004E04FF4C8700549088000BF09
:101B100000BF1CB14FF42F7002F00AFE70BD000030
:101B2000402C014000BFFEE710B54948808F00F40B
:101B30000040002872D04648FEF73AFB012804D145
:101B4000434800783038C4B20FE04148FEF730FB1C
:101B500002280AD13E48407830383D49097830396A
:101B600001EB810100EB4100C4B2112C58D2DFE837
:101B700004F0090E13181D22272C3136373C41463C
:101B80004B5056000021084600F022F949E00021A0
:101B9000012000F01DF944E00021084600F066F83D
:101BA0003FE00021012000F061F83AE0002102202E
:101BB00000F05CF835E00021032000F057F830E039
:101BC0000021042000F052F82BE000210520FEF750
:101BD000F5FF26E000210420FEF7F0FF21E020E0E1
:101BE0000021062000F042F81BE00021072000F051
:101BF0003DF816E000210620FEF7E0FF11E000218D
:101C00000A2000F033F80CE00021052000F02EF847
:101C100007E00021082000F029F802E016E000E0CB
:101C200000BF00BF23460B480BA1026808481E30C6
:101C300002F0B8F806491E310B4802F09DF81E214B
:101C40000348FEF798FA00200149888710BD00007C
:101C5000F40E0020680500204865696768743A251D
:101C600064202025640D0A00004C00402DE9F04757
:101C7000044689460A2C75D0022C73D00C2C4BD20A
:101C8000DFE804F0060B4A10151A2937451F4A24CD
:101C900040F29E704A4908603EE040F2DB1048493D
:101CA000086039E040F25F504549086034E040F296
:101CB000CC60434908602FE040F23F204049086073
:101CC0002AE040F25F503E49086025E040F26B3068
:101CD0003B49086020E03A480068323038490860E3
:101CE00008460068B0F5F76F02D340F29E700860B6
:101CF00012E033480068323831490860084600680D
:101D0000B0F5897F02D84FF49670086004E04FF474
:101D100096702B49086000BF00BF2948006840F258
:101D20009E71884244D826480068B0F5967F3FD31C
:101D30002349096840F29E72501AFEF785FB074658
:101D4000204A214BFEF703FB81F000410546FEF7D8
:101D5000BAFB8246022251464FF69B7002F0A6FD66
:101D600026E0FFE7022C06D00A2C09D140F207300A
:101D70001349086004E040F297401149086000BF31
:101D800000BF0F49096840F29E72501AFEF75CFBD3
:101D900005460C4A0C4BFEF7DAFA81F00041074683
:101DA000FEF791FB824602225146084801F01EFBD5
:101DB000B9F1000F02D0962002F0BAFCBDE8F0871E
:101DC000680500206DC5FEB27BF2FA3F410A0008AB
:101DD00070B505460C4615B1012D0CD105E0012268
:101DE0000021084801F002FB05E0012206490548F0
:101DF00001F0FCFA00BF00BF14B1FA2002F098FC19
:101E000070BD0000410A0008000024C308B501218C
:101E1000082000F0B3F90121042000F0AFF93020D0
:101E2000ADF8000010208DF8030003208DF80200AB
:101E300069460D48FFF798F830210B48FFF771F914
:101E40004FF44050ADF8000010208DF8030003203F
:101E50008DF8020069460548FFF786F84FF44051B7
:101E60000248FFF760F908BD00080140000C01407E
:101E70007047000070B5002100230F22C47804B31E
:101E8000154C246804F4E064C4F5E064210AC1F14F
:101E90000403CA40447804FA03F1847814402143CF
:101EA00009010E4C0678A155047804F01F050124A1
:101EB000AC4005786D11AD0005F1E025C5F8004195
:101EC00009E0047804F01F050124AC40044D0678B5
:101ED000761145F8264070BD0CED00E000E400E00E
:101EE00080E100E002490143024A116070470000AE
:101EF0000000FA050CED00E010B5864800780F28C8
:101F00006FD2DFE800F0081E336E6E5F6F808D6E5B
:101F10006EB9CBD5E50000207F49086000217F48DD
:101F200001F05DF87E48407810B97E4800F0AAFBC9
:101F300002227DA1002000F02DFC012075490870CF
:101F4000E5E00120734988600320C8600021062075
:101F5000FEF734FE00210120FFF73AFF002109209F
:101F6000FFF784FE02206B490870D0E06C4840798E
:101F7000512826D100206A4948716648017A01201B
:101F8000FFF708F94FF47A7002F0D2FB4FF47A7041
:101F900002F0CEFB4FF47A7002F0CAFB0021012060
:101FA000FFF716FF00210620FEF708FE5949087AC0
:101FB0000021FFF78DFD57480078564948700E20E4
:101FC0000870A4E056484079512809D15148027A56
:101FD00001231946032000F0F3FB06204D49087049
:101FE00095E090E04B48017A00220920FFF79DF828
:101FF00000210520FFF73AFE464800784549487021
:102000000E20087083E0052248A1002000F0C2FBEA
:1020100000210920FFF72AFE08203E49087076E0DB
:102020003F484079512826D100203D494871394820
:10203000017B0120FFF7AEF84FF47A7002F078FBD5
:102040004FF47A7002F074FB4FF47A7002F070FB78
:1020500000210120FFF7BCFE00210620FEF7AEFDA7
:102060002C49087B0021FFF733FD2A4800782949D5
:1020700048700E2008704AE02948407951280CD158
:102080000020274948712348027B01231946032079
:1020900000F096FB0C201F49087038E01D48017BBA
:1020A00000220920FFF741F80D201A4908702EE0A0
:1020B0001B48407951280AD10020194948711C4811
:1020C00000F0E0FA002013490870154908701EE07E
:1020D00010484078022804D0062806D008280CD1E1
:1020E00007E007200B4908700BE00B200949087036
:1020F00007E005200749087003E00E4800F0C2FA27
:1021000000BF00BF03E00B4800F0BCFA00BF00BFF7
:1021100010BD0000A4060020888121420004004078
:1021200084000020CC6A00085E425F005E4B5F00C6
:10213000FC490008244E01087047000029B1064AF6
:10214000D2690243044BDA6104E0034AD269824354
:10215000014BDA61704700000010024029B1064AC5
:1021600012690243044B1A6104E0034A1269824374
:10217000014B1A61704700000010024029B1064A65
:1021800092690243044B9A6104E0034A92698243D4
:10219000014B9A61704700000010024029B1064AC5
:1021A000D2680243044BDA6004E0034AD2688243F7
:1021B000014BDA60704700000010024030B500218A
:1021C0000022002400232D4D6D6805F00C0121B183
:1021D000042905D0082923D105E0294D056022E016
:1021E000274D05601FE0254D6D6805F47012234DE5
:1021F0006D6805F48034022505EB92421CB9214D2F
:10220000554305600BE01D4D6D6805F400351DB1AB
:102210001C4D5543056002E0194D5543056002E031
:10222000174D056000BF00BF144D6D6805F0F0014B
:102230000909154D6B5C0568DD4045600F4D6D6803
:1022400005F4E061090A104D6B5C4568DD4085606E
:102250000A4D6D6805F46051C90A0B4D6B5C456809
:10226000DD40C560054D6D6805F44041890B074DA3
:102270006B5CC568B5FBF3F5056130BD001002402D
:1022800000127A0000093D0090060020A006002000
:1022900021B1028842F04002028004E002884FF639
:1022A000BF731A400280704710B50022028802F402
:1022B00041520B884C8823438C882343CC8823438A
:1022C0000C8923434C8923438C892343CC892343A2
:1022D0001A430280838B4FF2FF74234083830B8A5F
:1022E000038210BD10B5FFF7F1F9FFF741FA0520A1
:1022F000FFF78AF810206E4908603620FFF786FB4A
:102300000020FFF7BFFB3A20FFF780FB0520FFF717
:10231000B9FBB220FFF77AFB0C20FFF7B3FB0C20D0
:10232000FFF7B0FB0020FFF7ADFB3320FFF7AAFB60
:102330003320FFF7A7FBB720FFF768FB3520FFF737
:10234000A1FBBB20FFF762FB1920FFF79BFBC0201E
:10235000FFF75CFB2C20FFF795FBC220FFF756FB35
:102360000120FFF78FFBC320FFF750FB1220FFF780
:1023700089FBC420FFF74AFB2020FFF783FBC62020
:10238000FFF744FB0F20FFF77DFBD020FFF73EFB5C
:10239000A420FFF777FBA120FFF774FBE020FFF7F5
:1023A00035FBD020FFF76EFB0420FFF76BFB0D2001
:1023B000FFF768FB1120FFF765FB1320FFF762FBB7
:1023C0002B20FFF75FFB3F20FFF75CFB5420FFF75C
:1023D00059FB4C20FFF756FB1820FFF753FB0D204D
:1023E000FFF750FB0B20FFF74DFB1F20FFF74AFBC9
:1023F0002320FFF747FBE120FFF708FBD020FFF782
:1024000041FB0420FFF73EFB0C20FFF73BFB1120B4
:10241000FFF738FB1320FFF735FB2C20FFF732FBCB
:102420003F20FFF72FFB4420FFF72CFB5120FFF745
:1024300029FB2F20FFF726FB1F20FFF723FB1F2080
:10244000FFF720FB2020FFF71DFB2320FFF71AFBDF
:102450002120FFF7DBFA1120FFF7D8FA7820FEF7EA
:10246000D3FF2920FFF7D2FA00BF1248008900F0FD
:1024700080000028F9D110200D49091F08600320B1
:10248000FFF710FA0020FFF7E5F96FF07F40FFF744
:10249000F5F9FEF7FDFE0848FFF7D6F90120FFF732
:1024A00065FA802102481438FEF73DFE10BD000099
:1024B000140C0140003001408C02002070470000E5
:1024C00070B506460D46012068498880012E7DD1F1
:1024D000674800684000A84204D36548006840008F
:1024E000A84249D1002412E0624830F82400624931
:1024F0000880012160482C3800F071FD00BF5B4866
:1025000080790028FBD0002058498871641C584805
:1025100000688442E8D300240DE0012156482C389D
:1025200000F05DFD00BF514880790028FBD00020FD
:102530004E498871641C4E480068022101FB10500E
:10254000A042EAD84A480068441E12E0494830F8E0
:10255000240049490880012147482C3800F03FFDFC
:1025600000BF424880790028FBD000203F49887195
:10257000641E002CEADA77E0002412E03D4830F8CF
:1025800024003D49088001213B482C3800F027FDFC
:1025900000BF364880790028FBD00020334988717D
:1025A000641CB4EB550FE9D305F0010060B10121C3
:1025B00031482C3800F013FD00BF2C4880790028EA
:1025C000FBD0002029498871012000E018E0C0EB11
:1025D000550412E0274830F82400274908800121DB
:1025E00025482C3800F0FBFC00BF204880790028EB
:1025F000FBD000201D498871641E002CEADA33E00C
:10260000022E31D1002411E04FF4FA601A490880FB
:10261000012119482C3800F0E2FC00BF13488079F2
:102620000028FBD0002011498871641C1348006801
:10263000281AA042E8D811480068441E12E0104849
:1026400030F824000C49088001210B482C3800F098
:10265000C6FC00BF054880790028FBD00020034954
:102660008871641E002CEADA70BD0000440300206B
:10267000D8040020780300202C340140DC04002022
:1026800018D7010838B50446FEF702FE4FF48C73E4
:10269000F022002108460094FEF77EFF38BD0000BE
:1026A000F0B5ADF2044D06460D46144600203549FE
:1026B000A1F80008324634A101A801F073FB7DB9EE
:1026C00006E001A9324801F057FB642002F030F81F
:1026D000601E80B2041EF4D101200DF2044DF0BD45
:1026E000002D4CD047E0012240F22551284801F04E
:1026F00098FA01A9264801F03FFB002731E0142099
:1027000002F016F81F48B0F8000800F4004030B39B
:1027100000201C49B1F80018C1F30E01194A5054A9
:1027200029461046FDF732FD80B1002240F22551C6
:10273000174801F076FA4FF480611248FDF71BFD4F
:1027400000201049A1F800080120C6E74FF480617D
:102750000C48FDF710FD00200A49A1F80008781C7C
:10276000C7B2052FCBDB012C01DC0020B5E74FF40D
:10277000FA7001F0DDFF601E80B2041EB3D10020AC
:10278000ABE70000F206002025730D0A00000000F0
:10279000004800402DE9F04107460E46144600254A
:1027A00008E03146054801F0E7FA282001F0C0FFB3
:1027B000681CC5B2A542F4DBBDE8F08100440040CE
:1027C0002DE9F04104460E4615461F46022C19D14C
:1027D000012D04D0022D08D0032D12D10BE00822C8
:1027E00024A10020FFF7D6FF0BE0082222A1002041
:1027F000FFF7D0FF05E0082220A10020FFF7CAFF65
:1028000000BF1BE0032C19D1012D04D0022D08D0EC
:10281000032D12D10BE0082219A10020FFF7BAFF07
:102820000BE0082217A10020FFF7B4FF05E0082203
:1028300015A10020FFF7AEFF00BF00BF3FB1002190
:102840000846FFF713FA00210846FFF7C1FA012EE8
:102850000DD10AE00A2001F06BFF0C4840795128A5
:1028600003D100200949487100E0F3E700BFBDE84B
:10287000F08100005E435F005E445F005E455F00E4
:102880005E4C5F005E4D5F005E4E5F008400002086
:1028900010B500F001F810BD0CB5002001900090BB
:1028A0003348006840F480303149086000BF304848
:1028B000006800F4003000900198401C01900098DE
:1028C00018B90198B0F5A06FF1D12948006800F45B
:1028D000003010B10120009001E00020009000982D
:1028E000012843D12348006840F0100021490860C6
:1028F0000846006820F0030008600846006840F0C1
:10290000020008601A484068194948600846406853
:1029100048600846406840F4806048600846406867
:1029200020F47C1048600846406840F4E810486095
:102930000846006840F08070086000BF0C480068DE
:1029400000F000700028F9D00948406820F003002A
:10295000074948600846406840F00200486000BFF0
:102960000348406800F00C000828F9D10CBD0000B5
:10297000001002400020024010B51C48407800289A
:1029800032D0002019494870FEF744F940F2E7318F
:1029900041F61F4000F0A2FDFEF77AFC1448FEF756
:1029A00053FF14A20F210520FEF7DAFD14A23221F5
:1029B0000520FEF7D5FD14A255210520FEF7D0FD18
:1029C00014A29B210520FEF7CBFD14A2BE210520F9
:1029D000FEF7C6FD13A2E1210520FEF7C1FD13A2FB
:1029E000F0217820FEF7BCFD10BD0000840000201F
:1029F0008002002053656E644361723A000000005B
:102A00005152636F64653A00526563654361723A7F
:102A1000000000004E6F773A000000005461736BB5
:102A20003A000000426C75653A0000002A44656275
:102A300075672A00042808D14FF0E021096941F0A8
:102A400004014FF0E022116107E04FF0E021096935
:102A500021F004014FF0E02211617047704700003F
:102A600010B51348006840F001001149086008469D
:102A70004068104908400E494860084600680E4901
:102A800008400B4908600846006820F48020086070
:102A90000846406820F4FE0048604FF41F0088603C
:102AA000FFF7F6FE4FF000600449086010BD00001B
:102AB000001002400000FFF8FFFFF6FE08ED00E006
:102AC0002DE9F04105460C4617461E4600206B498D
:102AD000887048700870C870694908706748457008
:102AE0008470C77006714FF4A060FFF7FBF901F026
:102AF000FDFDFFF7F7FB642001F01AFEFEF7C8FBAF
:102B00006048FEF7BBFE6048FEF79EFE5FA20F2105
:102B10000520FEF725FDFF20FEF7B0FE61A2232170
:102B20000520FEF71DFD65A238210520FEF718FDE2
:102B30005448FEF7A3FE68A24D210520FEF710FDC4
:102B4000642001F0F5FDFEF7A9FFFEF739FB6FF0F9
:102B50007F40FEF793FE65A262210520FEF700FD8F
:102B6000642001F0E5FDFFF751F948214FF6FF70B1
:102B700000F0E4FC63A277210520FEF7F1FC64205D
:102B800001F0D6FD472140F6C31000F037FC2CB110
:102B900040F2F31141F61F4000F00AF960A28C21C7
:102BA0000520FEF7DDFC642001F0C2FD4FF49640E5
:102BB00000F00AFF4FF4165000F0DAFD2F480079BC
:102BC00098B94FF4165000F051FF5BA2A1210520E7
:102BD000FEF7C6FC642001F0ABFD284840780028D1
:102BE00046D15B48FFF74EFD42E0244800790128BA
:102BF00022D141F61F4140F2E73000F07DF94FF459
:102C0000E13000F033FF4CA2A1210520FEF7A8FC23
:102C1000642001F08DFDFEF723F830B117484078AD
:102C200030BB4B48FFF72EFD22E014484078F8B93E
:102C30004848FFF727FD1BE010480079022817D10C
:102C400041F61F4140F2E73000F056F94FF4E13011
:102C500000F00CFF38A2A1210520FEF781FC6420C2
:102C600001F066FD0548407810B93948FFF70AFDC4
:102C700000210520FEF72CFFBDE8F0818400002034
:102C8000A406002000FFFF00A4020020436F70791B
:102C9000726967687420284329202040323032331B
:102CA0000000000053544D33324631303352435408
:102CB00036202037324D687A00000000464C4153E0
:102CC000483A323536204B4220205352414D3A3457
:102CD00038204B4200000000496E697469616C69DC
:102CE0007A652053797374656D3A00004B45592F0E
:102CF0004C4544204750494F2053756363657373B7
:102D00002E2E2E004D6F746F72204750494F2F5456
:102D1000696D657220537563636573732E2E2E0083
:102D2000536572766F2F54696D65722053756363B6
:102D30006573732E2E2E0000557361727420322F2E
:102D4000332F3420537563636573732E2E2E00006A
:102D5000FC490008244E010810B50121114800F07B
:102D600059F9F0B101210F4800F036F90E4800780A
:102D700020B100210B4800F032F912E00B48006846
:102D8000401C0A49086008460068B0F5167F08D361
:102D9000002008600120044908700021014800F06B
:102DA0001EF910BD00040040840000208C000020AB
:102DB0007FB505460C4601210220FFF7BFF9ADF8AB
:102DC0000850ADF804400020ADF80A00ADF8060048
:102DD00001A90E4800F096FA012241210B4800F0AB
:102DE0002AF91D208DF8000001208DF80100032034
:102DF0008DF8020001208DF803006846FFF73AF8CD
:102E00000121024800F0EBF87FBD00000004004003
:102E100010B50121224800F0FDF800283FD0012123
:102E20001F4800F0D9F81F480068C0431E49C1F888
:102E300080011E48FEF708FD2023F0229B2146203A
:102E4000FEF782FA1A4800781A4951F820209B218F
:102E50004B20FEF785FB2023F022BE215720FEF7F2
:102E600073FA13480623BE2142685A20FEF752FB2C
:102E70002023F02255218720FEF766FA0E4842797A
:102E800055218C20FEF7D6FA2023F022322157203C
:102E9000FEF75AFA094A32215A20FEF761FB10BDAB
:102EA00000100040800122420000224280020020E7
:102EB000A40600204800002084000020F206002024
:102EC00010B501210A4800F0A5F878B10948B0F81A
:102ED000000840F400400749A1F800080121044817
:102EE00000F07AF80021024800F079F810BD0000E7
:102EF00000140040F20600207FB505460C46012173
:102F00002020FFF71BF9ADF80450ADF80040002079
:102F1000ADF80600ADF8020069460E4800F0F2F97F
:102F2000012211460B4800F086F837208DF80C007E
:102F300000208DF80D0004208DF80E0001208DF882
:102F40000F0003A8FEF796FF0021024800F047F8A3
:102F50007FBD00000014004010B50121144800F0AE
:102F600059F818B313480078012814D112480068A2
:102F7000401C11490860114880880968884211D8AE
:102F800000200D49086001200C4988710021084883
:102F900000F025F806E00120084988710021044866
:102FA00000F01DF80121024800F016F810BD0000E5
:102FB0000034014040030020900000204403002022
:102FC00021B1028842F08002028004E002884FF6BC
:102FD0007F731A4002807047CA430282704721B152
:102FE000028842F00102028004E002884FF6FE737C
:102FF0001A400280704731B1B0F8442042F40042D8
:10300000A0F8442005E0B0F84420C2F30E02A0F876
:103010004420704730B50246002000230024158A62
:1030200005EA0103958905EA010413B10CB10120F9
:1030300000E0002030BD1AB183890B43838102E098
:1030400083898B438381704770B50024002200235D
:10305000058C4FF6FE7635400584028C8388048B00
:103060004FF68F752C40B51E2C400D882C43751ED5
:103070002A400D892A434D882A43144DA8420BD07B
:10308000134DA84208D0134DA84205D0124DA842B6
:1030900002D0124DA84213D14FF6F7752A404D8940
:1030A0002A434FF6FB752A408D882A434FF6FF6569
:1030B0002B404FF6FF552B408D892B43CD892B4359
:1030C00083800483CD888586028470BD002C0140F6
:1030D00000340140004001400044014000480140EC
:1030E0000A460021018B4FF6F77319401143018303
:1030F0007047000070B5002400220023058C4FF6B5
:10310000EF7635400584028C8388048B48F6FF7582
:103110002C404FF6FF452C400D884FF6FF7606EA0F
:1031200005252C434FF6DF752A400D8906EA051563
:103130002A434D8806EA05152A43154DA84202D0B8
:10314000144DA8421DD14FF67F752A404D894FF688
:10315000FF7606EA05152A434FF6BF752A408D888B
:1031600006EA05152A434FF6FF352B404FF2FF754F
:103170002B408D8906EA85052B43CD8906EA850516
:103180002B4383800483CD880587028470BD0000B3
:10319000002C0140003401400A460021018B4FF20F
:1031A000FF7319404FF6FF7303EA022319430183AB
:1031B0007047000070B5002400220023058C4FF6F4
:1031C000FF6635400584028C8388848B4FF68F75AB
:1031D0002C404FF6FC752C400D882C434FF6FF55C4
:1031E0002A400D894FF6FF7606EA05252A434D88C9
:1031F00006EA05252A43154DA84202D0144DA842DF
:103200001DD14FF2FF752A404D894FF6FF7606EA31
:1032100005252A434FF6FF352A408D8806EA052505
:103220002A434EF6FF752B404DF6FF752B408D89D6
:1032300006EA05152B43CD8906EA05152B43838045
:103240008483CD888587028470BD0000002C0140F6
:10325000003401400A460021818B4FF6F773194074
:10326000114381837047000070B5002200230024C1
:10327000058C4EF6FF7635400584038C8488828B5E
:1032800048F6FF752A404FF6FF452A400D884FF655
:10329000FF7606EA05252A434DF6FF752B400D897A
:1032A00006EA05352B434D8806EA05352B430B4DC1
:1032B000A84202D00A4DA84208D14BF6FF752C4017
:1032C0008D894FF6FF7606EA85152C43848082832C
:1032D000CD88A0F84050038470BD0000002C014050
:1032E000003401400A460021818B4FF2FF731940E0
:1032F0004FF6FF7303EA02231943818370478184E9
:1033000070470000002202881D4B98420ED01D4BD2
:1033100098420BD0B0F1804F08D01B4B984205D09B
:103320001A4B984202D01A4B984204D14FF68F7331
:103330001A404B881A43174B984207D0164B9842B5
:1033400004D04FF6FF431A40CB881A4302808B8883
:1033500083850B8803850A4B98420BD0094B984212
:1033600008D00E4B984205D00D4B984202D00D4B21
:10337000984201D10B7A03860123838270470000B3
:10338000002C0140003401400004004000080040CF
:10339000000C0040001000400014004000400140BC
:1033A000004401400048014010B500210320FEF711
:1033B0005DFC01210420FDF701FC0B480078401C56
:1033C0000949087000210846FEF750FC0121002041
:1033D000FEF7FEFC00210420FEF748FC0121052039
:1033E000FDF7ECFB10BD00006D05002070B5064632
:1033F0000C46154629462046B04770BD30B589B009
:1034000005460C460121C802FEF7B8FE0121042042
:10341000FEF7B4FE4FF47060ADF8040018208DF88C
:10342000070003208DF8060001A92A48FDF79CFD3E
:10343000681E80B2ADF81C00601E80B2ADF81800A6
:103440000020ADF81A00ADF81E008DF8200006A986
:103450002148FFF757FF6020ADF808000120ADF8C4
:103460000A000020ADF80C00ADF80E00ADF8100019
:10347000ADF812004FF48070ADF814000020ADF8E4
:10348000160002A91448FFF7DFFD02A91248FFF752
:10349000EBFE08211048FFF723FE08210E48FFF736
:1034A00021FF01210C48FFF7A6FD01210A48FFF783
:1034B00087FD40F24C4008493431088040F2CD503D
:1034C00005494031088001210348FFF788FD09B014
:1034D00030BD000000080140002C01407FB50546CA
:1034E0000C4601211020FEF729FEADF80850ADF87A
:1034F00004400020ADF80A00ADF8060001A90E480E
:10350000FFF700FF012211460B48FFF794FD36201C
:103510008DF8000000208DF8010003208DF80200D6
:1035200001208DF803006846FEF7A4FC0121024843
:10353000FFF755FD7FBD00000010004030B589B099
:1035400005460C4601214803FEF718FE0121102014
:10355000FEF714FE4FF47070ADF8200018208DF8BF
:10356000230003208DF8220008A93848FDF7FCFC51
:103570004FF470713548FDF7D4FD681E80B2ADF888
:103580001800601E80B2ADF814000020ADF81A00DB
:10359000ADF816002E488078401EC0B28DF81C0091
:1035A00005A92C48FFF7AEFE6020ADF8040001200D
:1035B000ADF80600ADF80A000020ADF80C0001A936
:1035C0002448FFF741FD01A92248FFF793FD01A917
:1035D0002048FFF7EFFD01A91E48FFF745FE012136
:1035E0001C48FFF708FD08211A48FFF779FD08215C
:1035F0001848FFF7D1FD08211648FFF72BFE0821D8
:103600001448FFF76FFE01211248FFF7D9FC012192
:103610001048FFF7E1FC012211460E48FFF70BFDB1
:103620002C208DF8000000208DF8010002208DF87C
:10363000020001208DF803006846FEF71BFC002104
:103640000448FFF7CCFC09B030BD00000010014079
:10365000440300200034014010B540F225511C48BD
:1036600000F0B5FA10B31A4800F06CFBC4B2194868
:10367000808F00F40040C8B91648808F00F4804065
:1036800060B10A2C03D00020124988871FE011483E
:10369000808F40F400400F49888718E00D2C06D138
:1036A0000C48808F40F480400A4988870FE0094821
:1036B000808FC0F30D0007490C540846808F401CD2
:1036C00088870846808F1D2801DD0020888710BD6F
:1036D000004C0040F40E002010B540F22551214866
:1036E00000F075FA00283CD01E4800F02BFBC4B255
:1036F0001D48008800F4004058BB1B48008800F4B7
:10370000804060B10A2C03D000201749088020E0D7
:103710001548008840F400401349088019E00D2C3A
:1037200006D11148008840F480400F49088010E01D
:103730000D480088C0F30D000C490C540A4800885D
:10374000401C09490880084600881D2801DD00202A
:1037500008800548008800F4004010B100200249AC
:10376000088010BD005000402E010020800F002076
:1037700010B586B0044601211020FEF7FFFC0121A0
:10378000C804FEF7DBFC4FF48060ADF8140018208D
:103790008DF8170003208DF8160005A92148FDF7C4
:1037A000E3FB4FF40060ADF8140004208DF817001F
:1037B00005A91C48FDF7D8FB01940020ADF80800CE
:1037C000ADF80A00ADF80C00ADF810000C20ADF813
:1037D0000E0001A9144800F049FA34208DF80000C9
:1037E00000208DF8010002208DF8020001208DF8E4
:1037F00003006846FEF73EFB002240F225510A48CE
:1038000000F00FFA012240F22551074800F009FAB2
:103810000121054800F0CCF800200449888706B053
:1038200010BD000000100140004C0040F40E0020CC
:103830007047000010B540F22551174800F0C7F955
:1038400048B3154800F07EFAC4B214481449097808
:1038500044545E2C03D012480078002805DD10483F
:103860000078401C0E49087002E000200C490870E6
:103870000B48007803280ED100200949087007483A
:1038800080785F2807D105484078064948711E2195
:103890000248FCF770FC10BD00440040B406002054
:1038A0002C0100208400002010B540F225513C4836
:1038B00000F08DF9002871D0394800F043FAC4B205
:1038C00038480079B8BB3848B0F8000800F4004028
:1038D000002863D13448B0F8000800F4804040B1BB
:1038E0003148B0F8000840F400402F49A1F8000822
:1038F00054E00D2C08D12C48B0F8000840F480406A
:103900002949A1F8000849E02748B0F80008C0F3A9
:103910000D0025490C540846B0F80008401CA1F8D9
:1039200000080846B0F80008B0F5806F36DB0020CC
:10393000A1F8000832E0FFE71A480079012803D017
:1039400018480079022829D11748B0F8000800F477
:10395000004018BB1448B0F80008B0F5806F15DAC5
:1039600000211248FFF7CBFC0F48B0F8000818B947
:1039700001210E48FFF733FB0B49B1F80008411C49
:10398000094AA2F8001811460C5407E00648B0F89E
:10399000000840F400400449A1F8000810BD0000F0
:1039A0000048004084000020F2060020001400407F
:1039B00021B1828942F40052828104E082894DF66D
:1039C000FF731A408281704710B586B0044601210A
:1039D0000420FEF7D3FB01214804FEF7AFFB0420CF
:1039E000ADF8140018208DF8170003208DF816008C
:1039F00005A91C48FDF7B8FA0820ADF8140004200A
:103A00008DF8170005A91748FDF7AEFA01940020BC
:103A1000ADF80800ADF80A00ADF80C00ADF81000E4
:103A20000C20ADF80E0001A90F4800F01FF9262068
:103A30008DF8000000208DF801008DF802000120B3
:103A40008DF803006846FEF715FA012240F2255171
:103A5000054800F0E6F801210348FFF7A9FF06B08A
:103A600010BD0000000801400044004010B586B0C1
:103A7000044601210820FEF781FB01218804FEF79E
:103A80005DFB224800F048F84FF48060ADF8140068
:103A900018208DF8170003208DF8160005A91C4882
:103AA000FDF762FA4FF40060ADF8140004208DF8C1
:103AB000170005A91648FDF757FA01940020ADF844
:103AC0000800ADF80A00ADF80C00ADF810000C20AD
:103AD000ADF80E0001A90D4800F0C8F827208DF8B8
:103AE000000000208DF8010001208DF802008DF803
:103AF00003006846FEF7BEF901210448FFF758FFAE
:103B000000200449A1F8000806B010BD004800409C
:103B1000000C0140F206002010B504462048844203
:103B200009D101218803FEF739FB00214FF48040C1
:103B3000FEF734FB32E01B48844209D101214804DE
:103B4000FEF70CFB00214FF40030FEF707FB25E0E9
:103B50001548844209D101218804FEF7FFFA0021AB
:103B60004FF48020FEF7FAFA18E01048844209D199
:103B70000121C804FEF7F2FA00214FF40020FEF7FD
:103B8000EDFA0BE00A48844208D101210805FEF74E
:103B9000E5FA00214FF48010FEF7E0FA10BD0000B6
:103BA000003801400044004000480040004C004004
:103BB0000050004002460020B1F5007F00D100BF58
:103BC00013880B400BB1012000E00020704770B556
:103BD0000246002400230025002040F66A16B14268
:103BE00000D100BFC1F3421501F01F03012606FA00
:103BF00003F3012D02D19689334006E0022D02D154
:103C0000168A334001E0968A33400C12012606FAE8
:103C100004F41688344013B10CB1012000E00020F8
:103C200070BDF0B50346002400260025002040F6B4
:103C30006A17B94200D100BF1846C1F3421401F01F
:103C40001F06012707FA06F5012C01D10C3004E00C
:103C5000022C01D1103000E014301AB107682F4354
:103C6000076002E00768AF430760F0BD2DE9F04749
:103C700086B005460E460024A24600BFA146002796
:103C8000B08900B100BF2F462C8A4CF6FF7004406B
:103C9000F08804432C82AC894EF6F3100440B088BF
:103CA00031890843718908430443AC81AC8A4FF6DB
:103CB000FF400440B0890443AC8201A8FEF77EFABD
:103CC0001F48874202D1DDF810A001E0DDF80CA00A
:103CD000A88900F4004040B10AEBCA0000EB0A10CA
:103CE00031684900B0FBF1F807E00AEBCA0000EBCD
:103CF0000A1031688900B0FBF1F86420B8FBF0F0DD
:103D000004012009642101FB1089A88900F4004006
:103D100040B1322000EBC900B0FBF1F000F0070029
:103D2000044308E0322000EB09106421B0FBF1F0FD
:103D300000F00F0004432C8106B0BDE8F0870000BE
:103D40000038014001468888C0F308007047C1F37D
:103D500008028280704700BFFEE770B504460D463A
:103D600029462046FFF7F3FF00BF80212046FFF7DA
:103D700021FF0028F9D070BD70B506460C4600251D
:103D800000BF615D3046FFF7E8FF6D1C605D0028F5
:103D9000F7D100BF40213046FFF70CFF0028F9D0D3
:103DA00070BD00000FB4084B10B504A902AA039817
:103DB00000F0DEF8044602A9002000F070FC204666
:103DC00010BC5DF814FB00009F46000802E008C824
:103DD000121F08C1002AFAD170477047002001E085
:103DE00001C1121F002AFBD1704700002DE9FF5FBF
:103DF00082B00021DDE90430020DDDF840B003435C
:103E000018D044F61050A2F2FF3242431514119814
:103E100001281FD0A5EB0B00401C5FEA000A4FF001
:103E200000064E4FDFF83891B046504615D5CAF11E
:103E3000000413E0119801244AA3012801D16FEA7C
:103E40000B010298119AC0E90031C0E9024206B0A4
:103E5000BDE8F09FCBF10000DFE704460021404AB7
:103E6000491842EB0450CDE9001012E0E00707D0FA
:103E700032463B4640464946FCF7DEFC80468946D2
:103E800032463B4610461946FCF7D6FC06460F461E
:103E90006410002CEAD1DDE90401DDE90023BAF168
:103EA000000F06DAFCF7C8FC42464B46FCF7C4FCA0
:103EB00005E0FCF74CFA42464B46FCF748FA04464C
:103EC0000E460022284BFCF741FD03D84FF0FF308F
:103ED000014607E00022254B20463146FCF705FC51
:103EE000FCF71CFD102409E0002C0ADB0A22002349
:103EF000FCF726FB039B30321A55641E50EA010280
:103F0000F2D1641C039AC4F111031444119A012ADA
:103F100003D0012208430DD10AE0084304D0002059
:103F20004FF0110B119072E7A3EB0B056D1E0DE026
:103F30005B4504DD4FF0000205F1010504E003DA02
:103F40004FF00002A5F10105002AECD0029811996A
:103F5000C0E90231C0E9004579E7000000001440E3
:103F60000000F03F300000000000F0430000E03FA0
:103F70002DE9FF4F95B09B468946064600250FE286
:103F8000252877D100242746F84A0121059400E02E
:103F9000044316F8013F203B01FA03F01042F7D129
:103FA00030782A2811D06FF02F033078A0F130023A
:103FB000092A16D8059A44F0020402EB820203EBA8
:103FC00042021044761C0590EFE759F8042B059245
:103FD000002A03DA504244F40054059044F00204ED
:103FE000761C30782E2816D116F8010F44F0040400
:103FF0002A280DD06FF02F023078A0F13003092B62
:1040000009D807EB870302EB4303C718761CF3E7D5
:1040100059F8047B761C30786C280FD006DC4C28CD
:1040200017D068280DD06A2814D104E0742810D065
:104030007A280FD10DE044F400140AE044F480140F
:1040400001E044F440147278824202D104F58014F5
:10405000761C761C307866280BD013DC582877D075
:1040600009DC002875D04528F6D04628F4D047282A
:104070001AD19DE118E0632835D0642879D06528ED
:1040800012D195E1702873D008DC6728F1D0692837
:104090006FD06E280DD06F2806D1B5E073282CD0D4
:1040A000752875D0782874D05A46179990476D1C9A
:1040B00075E1C4F30250022809D003280DD0D9F8C5
:1040C000001004280DD00D6009F1040967E1D9F84A
:1040D0000010EA17C1E90052F6E7D9F800100D8088
:1040E000F2E70D70F0E719F8041B8DF800100020BE
:1040F0008DF80100EA46012003E059F804AB4FF0C7
:10410000FF3061074FF0000102D40DE008F101011A
:104110008846B9420FDA8045F8DB1AF80810002902
:10412000F4D108E008F1010188468142FADB1AF86F
:1041300008100029F6D105985B46A0EB0807214638
:104140003846179A00F094FA284400EB080507E077
:104150004DE029E10DE01AF8010B5A4617999047F6
:10416000B8F10108F7D25B4621463846179A13E1A9
:1041700042E00A220092C4F302524FF0000A022ADF
:1041800008D059F804CB032A4FEAEC710AD00DE0AD
:1041900029E02AE009F1070121F00702F2E802C153
:1041A000914609E00FFA8CFC4FEAEC71042A03D126
:1041B0004FFA8CFC4FEAEC71002907DA0A4600211D
:1041C000DCF1000C61EB02012D2202E0220504D596
:1041D0002B228DF80420012203E0E20701D02022E7
:1041E000F7E7904659E00A2102E010220DE0102185
:1041F0004FF0000A00910BE010224FF0000A44F04B
:1042000004040827009203E008224FF0000A0092FD
:10421000C4F30252022A05D059F804CB0021032A24
:1042200008D009E009F1070121F00702F2E802C114
:10423000914605E01FFA8CFC042A01D10CF0FF0C1A
:104240004FF00008220728D5702806D0009B83F085
:10425000100353EA0A0305D00EE040228DF8042033
:10426000012208E05CEA010206D030228DF8042029
:104270008DF8050002229046009B83F0080353EA64
:104280000A030AD15CEA010201D1620705D5302296
:104290008DF804204FF001087F1E582804D034A068
:1042A00003900EA802900DE036A0F9E75346604651
:1042B000009AFCF745F984460398825C0298401EF8
:1042C000029002705CEA0100F0D1029806A9081A77
:1042D00000F1200A600702D524F4803400E00127B1
:1042E000574502DDA7EB0A0000E0002000EB0A01C1
:1042F000009005984144401A0590E00306D45B46BF
:104300002146179A059800F0B3F90544002706E006
:1043100001A85A46C05D179990476D1C7F1C474500
:10432000F6DBE0030CD55B462146179A059800F0B2
:104330009FF9054404E030205A46179990476D1CB8
:104340000099481E00900029F5DC08E002980299C7
:104350005A460078491C0291179990476D1CBAF192
:104360000001AAF1010AF1DC65E100000928010061
:1043700030313233343536373839616263646566DB
:10438000000000003031323334353637383941429D
:10439000434445460000000000F058F90544761CEF
:1043A000307800287FF4ECAD19B02846BDE8F08FD6
:1043B000620700D4062709F1070222F0070CFCE887
:1043C0000223E14603F000485FEA080C02D00FF236
:1043D000702C0DE05FEA045C02D50FF2682C07E058
:1043E0005FEAC47C02D00FF2602C01E0AFF2700CE7
:1043F0004FF0FF3823F00043CDF850C065280CD0B3
:1044000006DC452809D046281DD047283DD13DE08F
:10441000662818D067287ED138E00021112F01DBF3
:10442000112000E0781CCDE9000106A90EA8FFF7D5
:10443000DDFCDDE90F010E9A03910021009207F1E6
:10444000010A04914DE04FF000400097CDE90110C2
:1044500006A90EA8FFF7CAFCDDE90F0203920E9B26
:1044600011990022DDF80CA00093049211B9791C77
:1044700000EB010AB7EB0A0004D4C0F1FF3007F1EA
:10448000010A0490AAEB0700019044E0012F00DA32
:1044900001270021112F01DD112000E03846CDE970
:1044A000000106A90EA8FFF7A1FCDDE90F010E9A95
:1044B0000391002104910092BA4621070CD403997C
:1044C000514500DA8A46BAF1010F05DD009AAAF1DA
:1044D0000101515C302908D0B84202DA10F1040F12
:1044E00006DA0121CDE9011015E0AAF10101E9E7A1
:1044F000002805DC049901440491AAEB000102E0C4
:10450000411C514500DD8A460499401A401C019027
:104510004FF000400290200704D40198504501DB81
:10452000CDF8048000208DF84F0002980DF14F0760
:10453000B0F1004F25D02B200E9002984FF00208CA
:1045400000280CDA404202902D200E9007E00A214C
:104550000298FBF7DFFF3031029007F8011DB8F138
:104560000001A8F10108F2DC02980028EFD1791EC1
:104570000E980870307800F0200040F0450007F8F1
:10458000020D12A8C01B00F107081498007800B1B2
:10459000012000EB0A01019801EBE071059841440C
:1045A000401A401E0590E00306D45B462146179A48
:1045B000059800F05DF805441498007818B15A4643
:1045C000179990476D1CE00324D55B462146179A46
:1045D000059800F04DF805441CE00498002807DB1E
:1045E000DDE90301884203DD0098405C179901E092
:1045F000179930205A469047049805F10105401C50
:1046000004900198401E019004D12E205A4617991B
:1046100090476D1CBAF10001AAF1010ADDDC05E04A
:1046200017F8010B5A46179990476D1CB8F1000115
:10463000A8F10108F4DC5B462146179A0598ABE621
:104640002D0000002B000000200000002DE9F041AB
:10465000044600251E461746880404D405E0394662
:104660002020B0476D1C641EF9D52846BDE8F081B6
:104670002DE9F041044600251E469046C80301D5A9
:10468000302700E02027880404D505E0414638465D
:10469000B0476D1C641EF9D52846BDE8F0810A6854
:1046A000531C0B601070704770B504460D480088AD
:1046B000C82148430B49897890FBF1F0094988806B
:1046C00000250CE001210848FEF789FC00BF0548E1
:1046D00080790028FBD00020024988716D1CA5421A
:1046E000F0D370BD440300200034014010B56FF0DA
:1046F0000400FEF79FF90A4800680A49B0FBF1F090
:10470000094908700846007800EB4001C1EBC01071
:104710004FF6FF7101EAC0000449088010BD000097
:104720009400002000127A008C0600208E060020E3
:104730000146114A12884A434FF0E0235A61002291
:104740009A611A46126942F001021A6100BF4FF0E5
:10475000E022106900F001021AB100F48032002A50
:10476000F5D04FF0E022126922F001024FF0E02371
:104770001A6100229A6170478E06002010B5012947
:1047800006D002291ED0032939D0042971D153E063
:104790000022394B1A801B1F1A801B1F1A80364BB0
:1047A000143B1A8802EBD2735B10334C0C3C238011
:1047B000012803D10122314B1A6002E000222F4B65
:1047C0001A6057E000222C4B1A801B1F1A802A4BBC
:1047D0000C3B1A80284B143B1A8802EBD2735B10F7
:1047E000254C083C2380012804D10122234B1B1DAA
:1047F0001A6003E00022214B1B1D1A603AE00022E0
:104800001D4B1A801C4B083B1A801B1F1A801A4B29
:10481000143B1A8802EBD2735B10174C241F2380C1
:10482000012804D10122154B303B1A6003E000221D
:10483000124B303B1A601DE000220F4B1B1F1A80E9
:104840001B1F1A801B1F1A800B4B143B1A8802EB8C
:10485000D2735B10084C2380012804D10122074B3E
:104860000C331A6003E00022044B0C331A6001E0A1
:10487000FFE700BF00BF10BD40340140B0812142BE
:1048800000231A4619461846FEF71AF90BE00648A7
:10489000007810B1FDF730FB05E0FCF7DBFCFEF71C
:1048A0006BF8FDF741F9F2E7840000202DE9F04FA5
:1048B00085B081460E4615463F48407818B1002124
:1048C0003E48FEF78CFB01203D49087048203D49D9
:1048D00008804FF6FF70A0EB0900091D0880012D2C
:1048E00006D0022D0BD0032D10D0042D1CD114E0C6
:1048F000354841693046FBF7B4FC049015E0324876
:10490000C1693046FBF7ADFC04900EE02E48416AC9
:104910003046FBF7A6FC049007E02B48C16A3046FE
:10492000FBF79FFC049000E000BF00BF2649098808
:10493000C82201FB02F0FBF779FD00900499FBF718
:1049400096FC0190FBF7ACFD0022204BCDE9020163
:10495000FBF7FDFC0746FBF784FD0446002C04DB57
:1049600029460120FFF70AFF04E06442294600209F
:10497000FFF704FF14480088C821484394FBF0FA6D
:1049800011480088484394FBF0F100FB114B50465E
:10499000FFF78AFE1FFA8BF000F01AF80A480C3075
:1049A00040F835600448407818B101210348FEF70B
:1049B00016FB05B0BDE8F08F840000200010004019
:1049C000400300202834014044030020008076404A
:1049D00010B504460748848001210748FEF7FFFA16
:1049E00000BF044880790028FBD00020014988716D
:1049F00010BD00004403002000340140000000000E
:104A000000000000000000000000000000000000A6
:104A10000000000000000000000000000000000096
:104A20000000000000000000000000000000000086
:104A30000000000000000000000000000000000076
:104A40000000000000000000000000000000000066
:104A50000000000000000000000000000000000056
:104A60000000000000000000000000000000000046
:104A70000000000000000000000000000000000036
:104A80000000000000000000000000000000000026
:104A90000000000000000000000000000000000016
:104AA0000000000000000000000000000000000006
:104AB00000000000000000000000000000000000F6
:104AC00000000000000000000000000000000000E6
:104AD00000000000000000F0FFFFFFFFFFFFFFFFEE
:104AE000FFFF0100000000000000000000000000C7
:104AF0000000000000F0FFFFFFFFFFFFFFFFFFFFD0
:104B000001000000000000000000000000000000A4
:104B1000000000F8FFFFFFFFFFFFFFFFFFFF0100A6
:104B20000000000000000000000000000000000085
:104B300000F8FFFFFFFFFFFFFFFFFFFF0300000084
:104B4000000000000000000000000000000000F86D
:104B5000FFFFFFFFFFFFFFFFFFFF0300000000005C
:104B600000000000000000000000000000F8FFFF4F
:104B7000FFFFFFFFFFFFFFFF03000000000000003A
:104B80000000000000000000000000F8FFFFFFFF31
:104B9000FFFFFFFFFFFF0300000000000000000018
:104BA000000000000000000000F8FFFFFFFFFFFF13
:104BB000FFFFFFFF030000000000000000000000F6
:104BC00000000000000000F8FFFFFFFFFFFFFFFFF5
:104BD000FFFF0300000000000000000000000000D4
:104BE0000000000000F0FFFFFFFFFFFFFFFFFFFFDF
:104BF00001000000000000000000000000000000B4
:104C0000000000F0FFFFFFFFFFFFFFFFFFFF0100BD
:104C10000000000000000000000000000000000094
:104C200000E0FFFFFFFFFFFFFFFFFFFF00000000AE
:104C30000000000000000000000000000000000074
:104C400000000000F83F000000000000000000002D
:104C50000000000000000000000000000000000054
:104C60000000F83F0000000000000000000000000D
:104C70000000000000000000000000000000000034
:104C8000F83F0000000000000000000000000000ED
:104C90000000000000000000000000000000F83FDD
:104CA0000000000000000000000000000000000004
:104CB000000000000000000000000000F83F0000BD
:104CC00000000000000000000000000000000000E4
:104CD00000000000000000000000F83F000000009D
:104CE00000000000000000000000000000000000C4
:104CF0000000000000000000F83F0000000000007D
:104D000000000000000000000000000000000000A3
:104D1000000000000000F83F00000000000000005C
:104D20000000000000000000000000000000000083
:104D300000000000F83F000000000000000000003C
:104D40000000000000000000000000000000000063
:104D50000000F83F0000000000000000000000001C
:104D60000000000000000000000000000000000043
:104D7000F83F0000000000000000000000000000FC
:104D80000000000000000000000000000000F83FEC
:104D90000000000000000000000000000000000013
:104DA000000000000000000000000000F83F0000CC
:104DB00000000000000000000000000000000000F3
:104DC00000000000000000000000F83F00000000AC
:104DD00000000000000000000000000000000000D3
:104DE0000000000000000000F83F0000000000008C
:104DF00000000000000000000000000000000000B3
:104E0000000000000000F83F00000000000000006B
:104E10000000000000000000000000000000000092
:104E200000000000F83F000000000000000000004B
:104E30000000000000000000000000000000000072
:104E40000000F83F0000000000000000000000002B
:104E50000000000000000000000000000000000052
:104E6000F83F00000000000000000000000000000B
:104E70000000000000000000000000000000F83FFB
:104E80000000000000000000000000000000000022
:104E9000000000000000000000000000F83F0000DB
:104EA0000000000000000000000000000000000002
:104EB00000000000000000000000F83F00000000BB
:104EC00000000000000000000000000000000000E2
:104ED0000000000000000000F83F0000000000009B
:104EE00000000000000000000000000000000000C2
:104EF000000000000000F83F00000000000000007B
:104F000000000000000000000000000000000000A1
:104F100000000000F83F000000000000000000005A
:104F20000000000000000000000000000000000081
:104F30000000F83F0000000000000000000000003A
:104F40000000000000000000000000000000000061
:104F5000F83F00000000000000000000000000001A
:104F60000000000000000000000000000000F83F0A
:104F70000000000000000000000000000000000031
:104F8000000000000000000000000000F83F0000EA
:104F90000000000000000000000000000000000011
:104FA00000000000000000000000F83F00000000CA
:104FB00000000000000000000000000000000000F1
:104FC0000000000000000000F83F000000000000AA
:104FD00000000000000000000000000000000000D1
:104FE000000000000000F83F00000000000000008A
:104FF00000000000000000000000000000000000B1
:1050000000000000F83F0000000000000000000069
:105010000000000000000000000000000000000090
:105020000000F83F00000000000000000000000049
:105030000000000000000000000000000000000070
:10504000F83F000000000000000000000000000029
:105050000000000000000000000000000000F83F19
:105060000000000000000000000000000000000040
:10507000000000000000000000000000F83F0000F9
:105080000000000000000000000000000000000020
:1050900000000000000000000000F83F00000000D9
:1050A0000000000000000000000000000000000000
:1050B000000000F0FFFFFFFFFFFFFFFFFFFF010009
:1050C00000000000000000000000000000000000E0
:1050D00000F0FFFFFFFFFFFFFFFFFFFF01000000E9
:1050E000000000000000000000000000000000F8C8
:1050F000FFFFFFFFFFFFFFFFFFFF010000000000B9
:1051000000000000000000000000000000F8FFFFA9
:10511000FFFFFFFFFFFFFFFF030000000000000094
:105120000000000000000000000000F8FFFFFFFF8B
:10513000FFFFFFFFFFFF0300000000000000000072
:10514000000000000000000000F8FFFFFFFFFFFF6D
:10515000FFFFFFFF03000000000000000000000050
:1051600000000000000000F8FFFFFFFFFFFFFFFF4F
:10517000FFFF03000000000000000000000000002E
:105180000000000000F8FFFFFFFFFFFFFFFFFFFF31
:10519000030000000000000000000000000000000C
:1051A000000000F8FFFFFFFFFFFFFFFFFFFF010010
:1051B00000000000000000000000000000000000EF
:1051C00000F0FFFFFFFFFFFFFFFFFFFF01000000F8
:1051D000000000000000000000000000000000F0DF
:1051E000FFFFFFFFFFFFFFFFFFFF010000000000C8
:1051F00000000000000000000000000000E0FFFFD1
:10520000FFFFFFFFFFFFFFFF0000000000000000A6
:10521000000000000000000000000000000000008E
:10522000000000000000000000000000000000007E
:10523000000000000000000000000000000000006E
:10524000000000000000000000000000000000005E
:10525000000000000000000000000000000000004E
:10526000000000000000000000000000000000003E
:10527000000000000000000000000000000000002E
:10528000000000000000000000000000000000001E
:10529000000000000000000000000000000000000E
:1052A00000000000000000000000000000000000FE
:1052B00000000000000000000000000000000000EE
:1052C00000000000000000000000000000000000DE
:1052D00000000000000000000000000000000000CE
:1052E00000000000000000000000000000000000BE
:1052F00000000000000000000000000000000000AE
:10530000000000000000000000000000000000009D
:10531000000000000000000000000000000000008D
:10532000000000000000000000000000000000007D
:10533000000000000000000000000000000000006D
:10534000000000000000000000000000000000005D
:10535000000000000000000000000000000000004D
:10536000000000000000000000000000000000003D
:10537000000000000000000000000000000000002D
:10538000000000000000000000000000000000001D
:10539000000000000000000000000000000000000D
:1053A00000000000000000000000000000000000FD
:1053B00000000000000000000000000000000000ED
:1053C00000000000000000000000000000000000DD
:1053D00000000000000000000000000000000000CD
:1053E00000000000000000000000000000000000BD
:1053F0000000000000000000000000000000F8FFB6
:105400000700000000000000000000000000000095
:105410000000000000000000000000C0FFFF7F004F
:10542000000000000000000000000000000000007C
:10543000000000000000000000F8FFFFFF03000074
:10544000000000000000000000000000000000005C
:1054500000000000000000FEFFFFFF0F0000000042
:10546000000000000000000000000000000000003C
:105470000000000080FFFFFFFF7F00000000000031
:10548000000000000000000000000000000000001C
:105490000000E0FFFFFFFFFF000000000000000031
:1054A00000000000000000000000000000000000FC
:1054B000F0FFFFFFFFFF0100000000000000000000
:1054C0000000000000000000000000000000F8FFE5
:1054D000FFFFFFFF070000000000000000000000C9
:1054E000000000000000000000000000FCFFFFFFC3
:1054F000FFFF0F000000000000000000000000009F
:1055000000000000000000000000FEFFFFFFFFFFA2
:105510001F0000000000000000000000000000006C
:105520000000000000000000FFFFFFFFFFFF3F0042
:10553000000000000000000000000000000000006B
:10554000000000000080FFFFFFFFFFFF7F00000062
:10555000000000000000000000000000000000004B
:1055600000000080FFFF07FEF1FF7F000000000049
:10557000000000000000000000000000000000002B
:1055800000C0FF7F00FE01FFFF00000000000000E0
:10559000000000000000000000000000000000C04B
:1055A000FF0F00FE01F8FF000000000000000000F7
:1055B00000000000000000000000000000E0FF0705
:1055C00000FE01F0FF0100000000000000000000EC
:1055D0000000000000000000000000E0FF0100FEED
:1055E00001E0FF03000000000000000000000000D8
:1055F000000000000000000000F0FF0100FE01C0FC
:10560000FF03000000000000000000000000000098
:1056100000000000000000F0FF0000FE0180FF031A
:10562000000000000000000000000000000000007A
:105630000000000000F07F0000FE0100FF070000F6
:10564000000000000000000000000000000000005A
:10565000000000F03F0000FE0100FE070000000017
:10566000000000000000000000000000000000003A
:1056700000F83F0000FE0100FE07000000000000EF
:10568000000000000000000000000000000000F822
:105690001F0000FE0100FC070000000000000000E9
:1056A00000000000000000000000000000F81F00E3
:1056B00000FE0100FC0F00000000000000000000E0
:1056C0000000000000000000000000F81F0000FEC5
:1056D0000100FC0F000000000000000000000000BE
:1056E000000000000000000000F81F0000FE0100A4
:1056F000FC0F00000000000000000000000000009F
:1057000000000000000000F80F0000FE0100FC0F88
:105710000000000000000000000000000000000089
:105720000000000000F80F0000FE0100F80F00006C
:105730000000000000000000000000000000000069
:10574000000000F80F0000FE0100F80F000000004C
:105750000000000000000000000000000000000049
:1057600000FC0F0000FE0100F80F00000000000028
:10577000000000000000000000000000000000FC2D
:105780000F0000FE0100FC0F000000000000000000
:1057900000000000000000000000000000F80F0002
:1057A00000FE0100FC0F00000000000000000000EF
:1057B0000000000000000000000000F80F0000FEE4
:1057C0000100FC0F000000000000000000000000CD
:1057D000000000000000000000F80F0000FE0100C3
:1057E000FC0F0000000000000000000000000000AE
:1057F00000000000000000F80F0000FE0100FC0F98
:105800000000000000000000000000000000000098
:105810000000000000F80F0000FE0100FE0700007D
:105820000000000000000000000000000000000078
:10583000000000F81F0000FE0100FE07000000004D
:105840000000000000000000000000000000000058
:1058500000F81F0000FE0100FF070000000000002C
:10586000000000000000000000000000000000F840
:105870001F0000FE0180FF03000000000000000088
:1058800000000000000000000000000000F81F0001
:1058900000FE01C0FF030000000000000000000047
:1058A0000000000000000000000000F01F0000FEEB
:1058B00001F0FF03000000000000000000000000F5
:1058C000000000000000000000F03F0000FE01F8B2
:1058D000FF010000000000000000000000000000C8
:1058E00000000000000000F03F0000FE01FFFF018B
:1058F00000000000000000000000000000000000A8
:105900000000000000F03F0000FEFFFFFF0000006D
:105910000000000000000000000000000000000087
:10592000000000F03F0000FEFFFFFF00000000004D
:105930000000000000000000000000000000000067
:1059400000E07F0000FEFFFF7F000000000000007D
:10595000000000000000000000000000000000E067
:105960007F0000FEFFFF3F0000000000000000007D
:1059700000000000000000000000000000E0FF0048
:1059800000FEFFFF1F0000000000000000000000FC
:105990000000000000000000000000C0FF0000FE4A
:1059A000FFFF0F00000000000000000000000000EA
:1059B000000000000000000000C0FF0000FEFFFF2C
:1059C00007000000000000000000000000000000D0
:1059D0000000000000000080FF0100FEFFFF01004A
:1059E00000000000000000000000000000000000B7
:1059F000000000000000FF0000FEFFFF00000000AC
:105A00000000000000000000000000000000000096
:105A100000000000180000FEFF1F00000000000052
:105A20000000000000000000000000000000000076
:105A30000000000000FCFF07000000000000000064
:105A40000000000000000000000000000000000056
:105A5000000000F83F00000000000000000000000F
:105A60000000000000000000000000000000000036
:105A70000000000000000000000000000000000026
:105A80000000000000000000000000000000000016
:105A90000000000000000000000000000000000006
:105AA00000000000000000000000000000000000F6
:105AB00000000000000000000000000000000000E6
:105AC00000000000000000000000000000000000D6
:105AD00000000000000000000000000000000000C6
