:020000040800F2
:10000000200F002045010008C31A0008251300082E
:10001000FD190008B7100008D12D000800000000ED
:100020000000000000000000000000008D1E00081D
:100030001111000800000000491B0008DD20000825
:100040005F0100085F0100085F0100085F01000810
:100050005F0100085F0100085F0100085F01000800
:100060005F0100085F0100085F0100085F010008F0
:100070005F0100085F0100085F0100085F010008E0
:100080005F0100085F0100085F0100085F010008D0
:100090005F0100085F0100085F0100085F010008C0
:1000A0005F0100085F0100085F0100085F010008B0
:1000B0005F0100085F0100085F0100085F010008A0
:1000C0005F0100085F0100085F0100085F01000890
:1000D0005F010008F9290008812A0008092B00089F
:1000E0005F0100085F0100085F0100085F01000870
:1000F000492200085F0100085F0100085F01000855
:100100005F0100085F0100085F0100085F0100084F
:10011000092800085F010008412100085F0100086C
:100120005F0100085F0100085F0100085F0100082F
:10013000DFF80CD000F0D2FD00480047C13A0008BB
:10014000200F00200648804706480047FEE7FEE7EC
:10015000FEE7FEE7FEE7FEE7FEE7FEE7FEE7FEE777
:10016000E12000083101000810B5002200E0521C17
:10017000835C8C5CA34201D1002BF8D1D8B2E1B2F0
:10018000401A10BD034611F8012B00F8012B002A7C
:10019000F9D11846704700000FB400B58DB010A912
:1001A00009900B9000914FF0FF300A9000200C90C6
:1001B00005480690054807906A4609A80F9900F07F
:1001C000B3FC0DB05DF814FB450B0008630B000891
:1001D0002DE9FF5F1D464FF0FF3BD5E901469146F3
:1001E0005F464FF00008A9697F1C01988847296A7B
:1001F000824688470028F6D1BAF1FF3F0CD024F49C
:10020000C064002E19DD600614D5BAF12B0F09D099
:10021000BAF12D0F0ED103E0584604B0BDE8F09FAF
:1002200044F48064A9697F1C01988847761E824641
:10023000002E02DDBAF1300F03D0B9F1000F26D045
:1002400032E0A969761E44F400747F1C0198884747
:100250008246002E05DDBAF1780F06D0BAF1580FAC
:1002600003D0B9F1000F10D01EE0B9F1000F02D099
:10027000B9F1100F18D1A969761E24F400747F1CFF
:10028000019888478246102002E0082000E00A20FA
:10029000814609E008FB0908A969761E44F4007448
:1002A0007F1C019888478246002E05DD494650464E
:1002B00000F026FC0028EDDAE96901988847A005DE
:1002C00002D46FF00100A8E7E00725D1600613D53E
:1002D000600502D5C8F1000000E0404629680A1D0B
:1002E0002A600968220501D5087015E0220701D5AA
:1002F000088011E008600FE02868011D296000688F
:10030000210502D580F8008006E0210702D5A0F87B
:10031000008001E0C0F8008038467EE72DE9FF5FED
:10032000D2E901A74FF00008916999461446DDF81B
:1003300038B0464601988847054659EA0B0005D073
:1003400009E0A169761C019888470546216A28467C
:1003500088470028F5D1681C03D05FEACA7005D031
:1003600015E04FF0FF3004B0BDE8F09F2068011D9C
:100370002160D0F800800AE05FEACA7001D108F875
:10038000015BA169761C7F1E019888470546002FF6
:100390001ADD681C18D0B9F1000F0DD0E81705EB75
:1003A000D060421120F01F0059F822102A1A0120B3
:1003B00090400142E0D107E0BBF1000FDCD1216A9F
:1003C000284688470028D7D0E16901988847BBF1C3
:1003D000000F07D1002E05DD5FEACA7002D10021AF
:1003E00088F80010A068B84203DDBBF1000F03D00D
:1003F00017B16FF00100B6E73046B4E7F0B480EA19
:100400000102D40F4200B2EB410F02D2024608466D
:1004100011464A0042D0C30DDDB2C1F3C752AD1A36
:10042000202D35DAC1F3160141F4000204B1524225
:10043000C5F1200602FA06F12A411044B3EBD05F61
:1004400023D0C4B1012DA0EBC35009DCF0BC4FF0A8
:10045000004202EAC352DBB200F5000000F09BBB91
:10046000400000F1807000EBC350A0F1807040EAC2
:10047000D170490009E0490841EAC071A0EBC350BE
:1004800000F50000400800EBC350F0BC00F07ABB60
:100490006142012202EB4101001BF6E7F0BC70470C
:1004A00081F00041AAE780F00040A7E780EA01025E
:1004B00010B502F00043400022D04A001FD0010EC8
:1004C00001EB1261C0F35600C2F3560240F4000083
:1004D00042F40002A0FB022000047F39140400D083
:1004E000401C50EA124001D44000491EC2B20C0622
:1004F00004EBD010401C4008802A02D003E000200A
:1005000010BD20F00100002900DA0020184310BDC2
:1005100030B480EA010202F0004530F0004221F0E0
:10052000004013D090B1C30DD40DC2F31601C0F337
:100530001600E41A41F4000140F400027D349142B7
:1005400001D3641C00E04900002C02DA30BC00201A
:1005500070474FF400000023914201D3891A0343EE
:1005600040084FEA4101F7D151B1914202D14FF019
:10057000004105E002D24FF0010101E06FF00101FE
:1005800003EBC450284430BC00F0FCBA2DE9FE4F08
:10059000804681EA0300C00F0C46009021F0004124
:1005A00023F00045B8EB0200A94105D240462146A0
:1005B00090461C460B46024623F00040104347D0AD
:1005C000270DC7F30A00C3F30A510290401A0190A5
:1005D00040286BDAC3F3130040F4801B0098924666
:1005E00020B10023D2EB030A63EB0B0B01985946B1
:1005F000C0F14002504600F052FA06460D46504601
:100600005946019A00F06AFA10EB08006141002493
:1006100087EA115284EAE7731A4340D0009A62B322
:10062000019A012A4FEA075215DC001B61EB020117
:100630004FF0004202EA0752CDE90042001C41F5AA
:10064000801132462B4600F0E3FA03B0BDE8F08F8C
:1006500040462146F9E7001B61EB0201001C41F511
:10066000801300185B412018A2F5001747EB030127
:1006700040EAD570B6196D4111E06D084FEA3606B3
:1006800045EAC0754FEA0752001B61EB0201001CEE
:1006900041F5801149084FEA3000001951413246B6
:1006A0002B4603B0BDE8F04F00F0A3BA009801223A
:1006B00040000023D0EB020263EBE0730098214678
:1006C0004FEAE074B8EB000061EB0401E9E783F066
:1006D00000435BE781F0004158E72DE9FE4F81EAD6
:1006E000030404F0004421F0004100944FF0000B9B
:1006F00023F0004350EA01045ED052EA03045BD0C9
:10070000C3F30A54C1F30A552C44A4F2F334019400
:10071000A0FB0254C1F3130141F48011C3F313038E
:1007200043F4801301FB024400FB034E840A970A42
:1007300044EA815447EA8357A4FB076802958D0A6F
:1007400005FB07854FEA932C04FB0C542705029DFB
:100750004FEA065847EA1637B5EB08056EEB070C6B
:10076000870E920E47EA811742EA8312A7FB020125
:10077000B6EB0B0164EB00042B0D43EA0C335E185F
:1007800044EB1C50DA465146E7FB0201C5F3130463
:100790004FEA0B3343EA14534FEA0432019C43EA15
:1007A0000603A4F10C040294009CCDE900B400F00F
:1007B0002FFA03B0BDE8F08F00200146F9E72DE9DC
:1007C000F04D81EA030404F0004B21F0004514468B
:1007D0004FF0000A23F0004150EA050220D054EA0D
:1007E00001021DD0C5F30A570246C5F31303C1F336
:1007F0001300C1F30A5640F4801543F48013A7EBAD
:100800000608101BD64608F2FD3873EB050002D32C
:1008100008F1010801E092185B41B8F1000F03DA1A
:1008200000200146BDE8F08D00204FF480110646FF
:1008300084460EE0171B73EB050705D3121B63EB11
:10084000050306434CEA010C49084FEA30009218B0
:100850005B4150EA0107EDD152EA030012D082EA6F
:10086000040083EA0501084305D0101BAB4106D202
:100870000122002306E000224FF0004302E06FF067
:10088000010253101AEB06004CEB085110EB0A0062
:1008900041EB0B01BDE8F04D00F0ABB9C10F80EAB0
:1008A000E0700844CA079623002100F074B996232B
:1008B0000022114600F06FB900F0004220F0004025
:1008C000C10DC0F3160040F400007F2901DA0020BA
:1008D0007047962903DCC1F19601C84001E09639C2
:1008E0008840002AF4D04042704770B5C1F30A52E4
:1008F00001F000450024C1F3130140F2FF3341F43D
:1009000080119A4201DA002070BD40F233439A42CE
:10091000A2F2334203DC524200F0D0F800E09040F3
:100920002C43F1D0404270BD00F0004230F0004056
:100930000AD0C10D01F56071C0F3160042EA015101
:10094000C20840071143704700200146704700006D
:1009500030B5041E71F1000404DB4FF00044404246
:1009600064EB0101141E73F1000405DB1C464FF01B
:100970000043524263EB04038B4208BF824230BD06
:1009800030B5041E71F1000404DB4FF00044404216
:1009900064EB0101141E73F1000405DB1C464FF0EB
:1009A0000043524263EB0403994208BF904230BDBA
:1009B00001F0004330B421F0004150EA010206D0BA
:1009C0000A0DA2F56072C1F31301002A02DC30BCEB
:1009D00000207047440F44EAC104C100E01830BC55
:1009E00000EBC25000F0CEB8002801DBC0F100409F
:1009F000002901DBC1F1004181427047002801DB81
:100A0000C0F10040002901DBC1F10041884270477C
:100A100030B50B46014600202022012409E021FACE
:100A200002F59D4205D303FA02F5491B04FA02F5CB
:100A30002844151EA2F10102F1DC30BD2DE9F05F62
:100A40000546002092469B4688460646814640243D
:100A50001BE0284641464746224600F02FF8534601
:100A60005A46C01A914110D311461846224600F04A
:100A700016F82D1A67EB01084F4622460120002187
:100A800000F00DF817EB00094E41201EA4F10104FF
:100A9000DFDC484631462A464346BDE8F09F202A1F
:100AA00004DB203A00FA02F1002070479140C2F1C5
:100AB000200320FA03F3194390407047202A04DBF7
:100AC000203A21FA02F00021704721FA02F3D040C7
:100AD000C2F120029140084319467047202A06DBE4
:100AE000CB17203A41FA02F043EAE07306E041FAFC
:100AF00002F3D040C2F120029140084319467047EA
:100B00003A2800D2303820F02002412A01D3A2F145
:100B10003700884201D34FF0FF307047026811441C
:100B20001378016018467047D16004495161044947
:100B3000116200211161114600F0E8B81D0B000898
:100B4000010D0008426842B1016811F8013B23B170
:100B5000521EC0E90012184670470121C160881E6C
:100B6000704742685AB1C368016843B983688B42D1
:100B700005D0491E521CC0E90012002070474FF0FA
:100B8000FF3070470029A8BF7047401C490008BFCC
:100B900020F00100704710B4B0FA80FC00FA0CF0AD
:100BA00050EA010404BF10BC704749B1CCF12004E5
:100BB00021FA04F411FA0CF118BF01212143084372
:100BC000A3EB0C01CB1D4FEA00614FEA102042BF9E
:100BD000002010BC704700EBC35010440029A4BF94
:100BE00010BC7047401C490008BF20F0010010BC39
:100BF000704710B5141E73F1000408DA401C41F16F
:100C0000000192185B411A4301D120F0010010BD90
:100C10002DE9F04D92469B4611B1B1FA81F202E006
:100C2000B0FA80F220329046FFF739FF04460F46B3
:100C300040EA0A0041EA0B0153465A46084313D0E2
:100C4000114653EA010019D0C8F140025046FFF79F
:100C500035FF05460E46504659464246FFF71FFFF0
:100C6000084305D0012004E020463946BDE8F08D58
:100C70000020054346EAE0762C4337430A98630593
:100C8000E40AA0EB08000022FD0A44EA47540A30B7
:100C900002D500200146E9E7010510196941DDE9A7
:100CA000084500196941BDE8F04DA2E7C1F30A52B9
:100CB000C1F3130140F2FF3341F480119A4202DA8A
:100CC00000200146704740F233439A42A2F2334279
:100CD00002DC5242FFF7F2BEFFF7E1BE064C074DC1
:100CE00006E0E06840F0010394E8070098471034FC
:100CF000AC42F6D3FFF720FA60C3000880C30008B7
:100D0000C0B24FF4F05100F097B900002DE9F34F55
:100D10008BB04FF0000801F10C000C464FF0010BB6
:100D200046460DF1080A0190626901210198904739
:100D3000051E2DD0252D2CD0216A8847C0B16269AF
:100D4000012101989047216A88470028F7D1411E68
:100D500062690198904700E0761CA1690B9888476A
:100D6000216A88470028F7D1E1690B988847DBE7BB
:100D7000A1690B9888470746A84201D1761CD3E7A2
:100D8000E1690B9888477F1C02D1B8F1000F6FD042
:100D900046E1002762693D463946019890472A2876
:100DA00004D162690121019890470125DFF88492FE
:100DB0006269012101989047A0F130010A290AD205
:100DC0004F45E5DC07EB870100EB4107303FDFD4FF
:100DD00045F01005ECE7E90601D46FF000476C28F8
:100DE0000AD04C2814D0682815D06A280DD0742851
:100DF0001CD07A281AD01DE0626901210198904721
:100E00006C2802D045F0040514E045F002050DE021
:100E100045F020050AE062690121019890476828A1
:100E200002D045F0080505E045F40065626901213E
:100E300001989047C4E9015765283DD019DC58282E
:100E40007AD00CDC452837D004DC252826D0412870
:100E500031D131E046282FD047282CD12CE05B2817
:100E600077D0612828D063287CD0642823D15AE029
:100E7000D0E06F2848D008DC66281DD067281BD03A
:100E8000692821D06E2816D127E0702845D0732814
:100E900068D0752847D078280DD14DE0A1690B980E
:100EA0008847054625283FF469AFE1690B988847D4
:100EB0006D1C3FF46AAFB3E023466A466FF0010051
:100EC0000B99AFF300809EE045F040006060A807FA
:100ED00023464FF0000236D43EE0E8077FF447AFE8
:100EE0002068011D21600068290501D506701BE7F7
:100EF000290701D5068017E7A90703D5F117C0E92F
:100F0000006111E706600FE745F040006060A80748
:100F100023464FF0080216D41EE040F60E0125EAE3
:100F20000100606016E045F040006060A8072346BD
:100F30004FF00A0207D40FE045F040006060A807B8
:100F400008D5234610226FF001000B99AFF3008003
:100F500059E007E0234610226FF001000B99FFF7DC
:100F600037F950E04FF000094F464B46632802D056
:100F70005B2806D040E0E80601D40120A0600127EC
:100F80003AE062690121019890475E2805D14FF04F
:100F900001096269494601989047216939B90021E0
:100FA0000A46534643F82120491C0829FADBB0B30E
:100FB000216969B9C11700EBD16253110AEB8301B2
:100FC00022F01F02821A01200B68904003430B603D
:100FD00062690121019890475D28E8D1B9F1000FBD
:100FE00009D00020514651F82020D24341F820205A
:100FF000401C0828F7DB02AB224600976FF0010087
:101000000B99FFF78BF900280CDA401C08D1BBF1D3
:10101000000F05D04FF0FF300DB0BDE8F08FFFE7B7
:101020004046F9E7E90701D108F1010806444FF00D
:10103000000B79E6CCCCCC0C7F2801D9002208E04B
:10104000064A02EB5002C007127800D1120902F0E2
:101050000F020120904008407047000018C20008AD
:1010600070B58C1810F8015B15F0070301D110F86A
:10107000013B2A1106D110F8012B03E010F8016B97
:1010800001F8016B5B1EF9D12B0705D40023521E1A
:101090000DD401F8013BFAE710F8013BCB1A921C82
:1010A00003E013F8015B01F8015B521EF9D5A14280
:1010B000D8D3002070BD00BFFEE7000011490A78B8
:1010C0000978491C0F4B19700F4988540978552924
:1010D00003D000211A46117070470A4909780B297C
:1010E00000DAF9E708494978532906D10749064A41
:1010F000921C13680B6052684A600021014A11700B
:1011000000BFE9E70A0000205C0200200200002086
:1011100070472DE9F04102460025002600200023FB
:101120000024002791F803C00CF00F0591F803C0CC
:101130000CF0100CBCF1000F03D091F802C04CEA87
:10114000050591F800C0BCF1000F31D014680020F3
:101150002BE04FF0010C0CFA00F3B1F800C00CEAE0
:1011600003069E4220D183004FF00F0C0CFA03F7C8
:10117000BC4305FA03FC4CEA040491F803C0BCF13B
:10118000280F06D14FF0010C0CFA00FCC2F814C075
:101190000AE091F803C0BCF1480F05D14FF0010CF3
:1011A0000CFA00FCC2F810C0401C0828D1D314600F
:1011B000B1F800C0BCF1FF0F34DD546800202EE010
:1011C00000F1080C4FF0010808FA0CF3B1F800C068
:1011D0000CEA03069E4221D183004FF00F0C0CFA5B
:1011E00003F7BC4305FA03FC4CEA040491F803C07E
:1011F000BCF1280F05D100F1080C08FA0CF8C2F870
:10120000148091F803C0BCF1480F07D100F1080C1D
:101210004FF0010808FA0CF8C2F81080401C0828AA
:10122000CED35460BDE8F081F0B50A460023002417
:101230000021002500F00046B6F1004F02D11D4EFE
:10124000F16901E01B4E7168C0F3034583B200F4FD
:101250004016B6F5401F08D121F07061154E766832
:1012600026F07066134F7E6012E000F48016B6F52B
:10127000801F06D1032606FA05F4A14341F07061F0
:1012800006E0460D360103FA06F6B14341F07061FF
:1012900022B1460D360103FA06F6314300F000464E
:1012A000B6F1004F02D1034EF16101E0014E7160D1
:1012B000F0BD0000000001404161704701617047CE
:1012C00008B50121082000F051FC0121042000F0A4
:1012D0004DFCF020ADF8000010208DF80300032035
:1012E0008DF8020069460D48FFF713FFF0210B4807
:1012F000FFF7E2FF4BF20100ADF8000010208DF87F
:10130000030003208DF8020069460548FFF701FF3E
:101310004BF201010248FFF7D1FF08BD0008014070
:10132000000C014000BFFEE710B586B004464FF444
:10133000A06000F0FFFB0121274800F007FC04201B
:10134000ADF8140018208DF8170003208DF8160052
:1013500005A92248FFF7DDFE0820ADF8140004209F
:101360008DF8170005A91D48FFF7D3FE0194002052
:10137000ADF80800ADF80A00ADF80C00ADF81000AB
:101380000C20ADF80E0001A9154801F081FC0122E6
:1013900040F22771124801F056FC012240F225511B
:1013A0000F4801F050FC40210D4801F0F1FB0021F5
:1013B0000B4801F005FC26208DF8000000208DF878
:1013C000010002208DF8020001208DF8030068461C
:1013D00000F078FB06B010BD0400020000080140D8
:1013E0000044004010B52A488089401E83B2284836
:1013F0004089401E82B20021084600F097F9254836
:1014000000884FF6BF7108402249088008460088CE
:1014100040F4006008800846008840F040000880E2
:1014200010201D49086000240BE0194880881949E4
:10143000888100BF1748008900F002000028F9D019
:10144000641C13484089124989894843A042ECD85A
:1014500000BF1048008900F080000028F9D110205A
:101460000D49091F08600B4800884FF6BF710840FE
:1014700008490880084600884FF2FF710840054976
:1014800008800846008840F04000088010BD000039
:101490000C0B002000300140140C014008B50DE099
:1014A0000021009104E0BDF80010491C89B20091B0
:1014B000BDF8001041F288329142F4DB011EA0F128
:1014C0000100EDD108BD00002DE9F05F0746884618
:1014D00014460025A9460026AA46A4F12000C4B25D
:1014E00010202D49086000BF34E02C4800680068D7
:1014F0002A490968098904FB015110F801B04FF02D
:10150000000921E00BF0010028B125480088254999
:1015100021F8160004E022488088224921F81600AC
:101520004FEA6B0B701C86B20AF101001FFA80FAB9
:101530001A4800688088504502D14FF0000A06E042
:1015400009F101001FFA80F9B9F1080FDADB00BFD9
:10155000681C85B2114800680089A842C5DC0F48A4
:101560000068C0884044401E83B20C4800688088F0
:101570003844401E82B24146384600F0D7F807484A
:1015800000688088054A1268D288504381B20548B5
:1015900000F0A2F9BDE8F09F140C014040010020CA
:1015A0000C0B00200C0300202DE9FF4106460F46DE
:1015B00014461D460B48007A30B923462A460AA134
:1015C000684601F007FC05E023462A4608A1684664
:1015D00001F000FC6A463946304600F00BF8BDE8E1
:1015E000FF8100000C0B002025302E2A6400000033
:1015F000252A640070B505460E4614460AE0227896
:1016000031462846FFF760FF064800688088284476
:1016100085B2641C04484089A84202DD2078002875
:10162000EDD170BD400100200C0B002008B5012158
:10163000082000F09BFA0121084600F097FA0121EA
:101640002148FFF7F1FD01210846FFF7EDFD1820C5
:101650008DF8030003208DF802000820ADF800008B
:1016600069461A48FFF755FD2020ADF8000069468D
:101670001648FFF74EFD10208DF8030003208DF86B
:1016800002001020ADF8000069461048FFF741FD48
:101690004020ADF8000069460C48FFF73AFD802075
:1016A000ADF8000069460948FFF733FD40210748BF
:1016B000FFF704FE1020054910310860802103481F
:1016C000FFF7FAFD08BD000000023000000C0140E9
:1016D00000B585B00121080300F048FA4FF44040FE
:1016E000ADF800004FF48270ADF802000020ADF8B4
:1016F0000400ADF80600ADF808004FF40070ADF836
:101700000A000820ADF80C000020ADF80E000720FC
:10171000ADF810006946044800F0AEFA0121024815
:1017200000F09EFA05B000BD003001402DE9F04107
:1017300004460D4616461F461020184908602A2008
:1017400000F014F91649897B214488B200F034F97D
:101750001349897B314488B200F02EF92B2000F028
:1017600005F90F49C97B294488B200F025F90C49D5
:10177000C97B394488B200F01FF92C2000F0F6F83C
:1017800000BF0848008900F080000028F9D110202F
:101790000249091F0860BDE8F0810000140C0140F7
:1017A0000C0B002000300140014908607047000028
:1017B0004001002030B500230021002200F478040D
:1017C000230A00F47C446109C0F3C40243EA010423
:1017D0001443014D6C6030BD0C0B002030B500236C
:1017E0000021002200F47804230A00F47C446109FB
:1017F000C0F3C40243EA01041443014D2C6030BD20
:101800000C0B002010B504462D48447210202D49C1
:10181000086084B9362000F0A9F8702000F0E2F8E2
:101820001420274988730020C8734FF48C704881B6
:10183000F020888137E0022C10D1362000F096F895
:10184000002000F0CFF800201D4988731420C873D1
:10185000F02048814FF48C70888124E0012C10D155
:10186000362000F083F8A02000F0BCF814201449C2
:1018700088730020C8734FF48C704881F0208881F1
:1018800011E0032C0FD1362000F070F8C02000F0DA
:10189000A9F800200A4988731420C873F0204881F1
:1018A0004FF48C70888100BF0748008900F08000E9
:1018B0000028F9D110200349091F086010BD00005D
:1018C0000C0B0020140C014000300140014908724B
:1018D000704700000C0B002010B50246214B1B88FE
:1018E0004FF6BF7423401F4C238023461B8843F4CC
:1018F0000063238023461B8843F04003238010238A
:10190000194C236000200BE032F81030154CA381F5
:1019100000BF144B1B8903F00203002BF9D0401CBD
:101920008842F1D300BF0F4B1B8903F08003002BCB
:10193000F9D110230C4C241F23600A4B1B884FF64F
:10194000BF742340074C238023461B884FF2FF744B
:101950002340044C238023461B8843F0400323800C
:1019600010BD000000300140140C014010B50446C9
:1019700000BF0F48008900F080000028F9D1402105
:101980000C48FFF799FC0A48848100BF0848008989
:1019900000F002000028F9D000BF0548008900F0DF
:1019A00080000028F9D140210248FFF787FC10BDD4
:1019B00000300140000C01400112094A918100BF32
:1019C0000749098901F002010029F9D004498881F9
:1019D00000BF0349098901F002010029F9D07047CD
:1019E000003001400449888100BF0349098901F0A2
:1019F00002010029F9D070470030014000BFFEE726
:101A00002DE9F043ADF5497D06460425002414E098
:101A1000A0460FE056F8281056F82400FEF7E4FF21
:101A200006D165A850F82400401C65A941F824009F
:101A300008F10108A845EDDB641CAC42E8DBDDF8E9
:101A40009491002409E065A850F82400484503DB80
:101A500065A850F824902746641CAC42F3DB0024B0
:101A600004E0002001A941F82400641CAC42F8DB2A
:101A700056F8270001A941F8270000240AE065A8CC
:101A800050F82400484504D156F8240001A941F833
:101A90002400641CAC42F2DB00240EE001A951F8E2
:101AA00024000021FEF7A0FF06D001A850F8240072
:101AB0000DF5497DBDE8F083641CAC42EEDB0020EF
:101AC000F6E7704770B5002100230F22C47804B3F5
:101AD000154C246804F4E064C4F5E064210AC1F103
:101AE0000403CA40447804FA03F184781440214383
:101AF00009010E4C0678A155047804F01F05012455
:101B0000AC4005786D11AD0005F1E025C5F8004148
:101B100009E0047804F01F050124AC40044D067868
:101B2000761145F8264070BD0CED00E000E400E0C1
:101B300080E100E002490143024A11607047000061
:101B40000000FA050CED00E07047000029B1064ADC
:101B5000D2690243044BDA6104E0034AD26982434A
:101B6000014BDA61704700000010024029B1064ABB
:101B700092690243044B9A6104E0034A92698243EA
:101B8000014B9A61704700000010024030B50021FF
:101B90000022002400232D4D6D6805F00C0121B1B9
:101BA000042905D0082923D105E0294D056022E04C
:101BB000274D05601FE0254D6D6805F47012234D1B
:101BC0006D6805F48034022505EB92421CB9214D65
:101BD000554305600BE01D4D6D6805F400351DB1E2
:101BE0001C4D5543056002E0194D5543056002E068
:101BF000174D056000BF00BF144D6D6805F0F00182
:101C00000909154D6B5C0568DD4045600F4D6D6839
:101C100005F4E061090A104D6B5C4568DD408560A4
:101C20000A4D6D6805F46051C90A0B4D6B5C45683F
:101C3000DD40C560054D6D6805F44041890B074DD9
:101C40006B5CC568B5FBF3F5056130BD0010024063
:101C500000127A0000093D004801002058010020D0
:101C600021B1028842F04002028004E002884FF66F
:101C7000BF731A400280704710B50022028802F438
:101C800041520B884C8823438C882343CC882343C0
:101C90000C8923434C8923438C892343CC892343D8
:101CA0001A430280838B4FF2FF74234083830B8A95
:101CB000038210BD10B5FFF7B9FCFFF709FD052041
:101CC000FFF7ECFB10206E4908603620FFF74EFE50
:101CD0000020FFF787FE3A20FFF748FE0520FFF7B8
:101CE00081FEB220FFF742FE0C20FFF77BFE0C20A6
:101CF000FFF778FE0020FFF775FE3320FFF772FE36
:101D00003320FFF76FFEB720FFF730FE3520FFF7D7
:101D100069FEBB20FFF72AFE1920FFF763FEC020F3
:101D2000FFF724FE2C20FFF75DFEC220FFF71EFE0A
:101D30000120FFF757FEC320FFF718FE1220FFF720
:101D400051FEC420FFF712FE2020FFF74BFEC620F5
:101D5000FFF70CFE0F20FFF745FED020FFF706FE31
:101D6000A420FFF73FFEA120FFF73CFEE020FFF795
:101D7000FDFDD020FFF736FE0420FFF733FE0D20D7
:101D8000FFF730FE1120FFF72DFE1320FFF72AFE8C
:101D90002B20FFF727FE3F20FFF724FE5420FFF7FC
:101DA00021FE4C20FFF71EFE1820FFF71BFE0D2022
:101DB000FFF718FE0B20FFF715FE1F20FFF712FE9E
:101DC0002320FFF70FFEE120FFF7D0FDD020FFF723
:101DD00009FE0420FFF706FE0C20FFF703FE11208A
:101DE000FFF700FE1320FFF7FDFD2C20FFF7FAFDA3
:101DF0003F20FFF7F7FD4420FFF7F4FD5120FFF7E8
:101E0000F1FD2F20FFF7EEFD1F20FFF7EBFD1F2058
:101E1000FFF7E8FD2020FFF7E5FD2320FFF7E2FDB7
:101E20002120FFF7A3FD1120FFF7A0FD7820FFF789
:101E300035FB2920FFF79AFD00BF1248008900F00A
:101E400080000028F9D110200D49091F08600020EA
:101E5000FFF7D8FC0020FFF7ADFC6FF07F40FFF7E5
:101E6000BDFCFFF7BFFA0848FFF79EFC0120FFF713
:101E70002DFD802102481438FFF720FA10BD000024
:101E8000140C0140003001400401002070470000A4
:101E900010B554488068544909884900884206DCD6
:101EA0005048806850490988490088424BD1002435
:101EB00012E04E4830F824004D49088001214C487A
:101EC0002C3800F0BEFA00BF4648007B0028FBD04B
:101ED000002044490873641C434800888442E8DBBE
:101EE00000240DE0012142482C3800F0AAFA00BF7E
:101EF0003C48007B0028FBD000203A490873641C52
:101F00003848806838490988022202FB1100A04243
:101F1000E8DC35480088441E12E0344830F82400DC
:101F200033490880012132482C3800F08AFA00BF7A
:101F30002C48007B0028FBD000202A490873641E2F
:101F4000002CEADA4CE0002412E0284830F82400A3
:101F500027490880012126482C3800F072FA00BF7A
:101F60002048007B0028FBD000201E490873641C19
:101F70001C49886800EBD071B4EB610FE5DB1949AF
:101F8000886800EBD0714910A0EB410161B10121DB
:101F900017482C3800F055FA00BF1248007B002883
:101FA000FBD000200F4908730E49886800EBD07100
:101FB00049104C1E12E00D4830F824000C490880EE
:101FC00001210B482C3800F03CFA00BF0548007B8B
:101FD0000028FBD0002003490873641E002CEADAB5
:101FE00010BD00001C0000203800002098B500083B
:101FF0002C34014010B500F001F810BD0CB50020E4
:10200000019000903348006840F480303149086006
:1020100000BF3048006800F4003000900198401C78
:102020000190009818B90198B0F5A06FF1D1294836
:10203000006800F4003010B10120009001E00020A1
:1020400000900098012843D12348006840F0100018
:10205000214908600846006820F00300086008462F
:10206000006840F0020008601A484068194948605A
:102070000846406848600846406840F48060486010
:102080000846406820F47C1048600846406840F4E8
:10209000E81048600846006840F08070086000BFA3
:1020A0000C48006800F000700028F9D0094840682A
:1020B00020F00300074948600846406840F00200ED
:1020C000486000BF0348406800F00C000828F9D1C0
:1020D0000CBD0000001002400020024070470000CC
:1020E00010B51348006840F0010011490860084627
:1020F0004068104908400E494860084600680E498B
:1021000008400B4908600846006820F480200860F9
:102110000846406820F4FE0048604FF41F008860C5
:10212000FFF768FF4FF000600449086010BD000031
:10213000001002400000FFF8FFFFF6FE08ED00E08F
:1021400010B53148008A00F00100002855D02F4812
:102150000078401C2D49087008460078012805D1F8
:102160002B4AAA213A20FFF745FA3FE0274800789A
:10217000022806D127480278CA213A20FFF7A4F99D
:1021800034E022480078032806D1234802788A21C7
:102190005A20FFF799F929E01C480078042807D154
:1021A0001E4804238A2102686A20FFF7FDF91DE01A
:1021B00016480078052807D1184804238A21426868
:1021C000AA20FFF7F1F911E01048007806280DD198
:1021D00013A22A215A20FFF70DFA19481949097844
:1021E00050F821202A215A20FFF704FA07480078E6
:1021F000062802DB0020054908700348008A20F009
:1022000001000149088210BD00100040C0000020FC
:10221000D80200205100002050000020480000207B
:1022200020202020202020202020202020202020AE
:10223000202020202020202020202020000000001E
:10224000640000204000002010B50121154800F076
:1022500013F928B314484079012806D112490873AC
:102260000021104800F0EDF816E00F48407998B9C9
:102270000E480068401C0D4908600B4840880968FA
:10228000884209D8002009490860012006490873DE
:102290000021044800F0D5F80121024800F0CEF8F2
:1022A00010BD0000003401401C000020C4000020CC
:1022B0007FB505460C4601211020FFF747FC681E3C
:1022C00080B2ADF80800601E80B2ADF804000020B6
:1022D000ADF80A00ADF8060001A90E4800F042FA78
:1022E000012211460B4800F0D8F836208DF8000086
:1022F00001208DF8010003208DF8020001208DF8E7
:1023000003006846FFF7DEFB0121024800F099F860
:102310007FBD00000010004030B589B005460C4676
:1023200001214803FFF722FC01211020FFF71EFCCA
:102330004FF47070ADF8200018208DF823000220B3
:102340008DF8220008A93548FEF7E3FE4FF47071BE
:102350003248FEF7B1FF681E80B2ADF81800601E6B
:1023600080B2ADF814000020ADF81A00ADF81600E8
:102370008DF81C0005A92A4800F0F4F96020ADF89A
:1023800004000120ADF80600ADF80A000020ADF809
:102390000C0001A9224800F089F801A9204800F0AA
:1023A000DBF801A91E4800F037F901A91C4800F02C
:1023B0008DF901211A4800F050F80821184800F062
:1023C000C1F80821164800F019F90821144800F056
:1023D00073F90821124800F0B7F90121104800F004
:1023E00021F801210E4800F029F8012211460C487D
:1023F00000F053F82C208DF8000000208DF801002B
:102400008DF8020001208DF803006846FFF75AFBA3
:102410000021034800F015F809B030BD001001405C
:102420000034014021B1028842F08002028004E0C1
:1024300002884FF67F731A4002807047CA430282B7
:10244000704721B1028842F00102028004E0028854
:102450004FF6FE731A400280704731B1B0F8442045
:1024600042F40042A0F8442005E0B0F84420C2F352
:102470000E02A0F84420704730B502460020002329
:102480000024158A05EA0103958905EA010413B1C0
:102490000CB1012000E0002030BD1AB183890B434C
:1024A000838102E083898B438381704770B5002468
:1024B00000220023058C4FF6FE7635400584028C01
:1024C0008388048B4FF68F752C40B51E2C400D88E9
:1024D0002C43751E2A400D892A434D882A43144DEA
:1024E000A8420BD0134DA84208D0134DA84205D0E6
:1024F000124DA84202D0124DA84213D14FF6F775E3
:102500002A404D892A434FF6FB752A408D882A437D
:102510004FF6FF652B404FF6FF552B408D892B431F
:10252000CD892B4383800483CD888586028470BD4A
:10253000002C0140003401400040014000440140B3
:10254000004801400A460021018B4FF6F7731940FD
:10255000114301837047000070B50024002200235E
:10256000058C4FF6EF7635400584028C8388048B0A
:1025700048F6FF752C404FF6FF452C400D884FF66E
:10258000FF7606EA05252C434FF6DF752A400D89B4
:1025900006EA05152A434D8806EA05152A43154D16
:1025A000A84202D0144DA8421DD14FF67F752A4093
:1025B0004D894FF6FF7606EA05152A434FF6BF759B
:1025C0002A408D8806EA05152A434FF6FF352B4031
:1025D0004FF2FF752B408D8906EA85052B43CD8987
:1025E00006EA85052B4383800483CD880587028412
:1025F00070BD0000002C0140003401400A4600215B
:10260000018B4FF2FF7319404FF6FF7303EA022369
:10261000194301837047000070B500240022002395
:10262000058C4FF6FF6635400584028C8388848BC9
:102630004FF68F752C404FF6FC752C400D882C43BF
:102640004FF6FF552A400D894FF6FF7606EA05251D
:102650002A434D8806EA05252A43154DA84202D093
:10266000144DA8421DD14FF2FF752A404D894FF6F7
:10267000FF7606EA05252A434FF6FF352A408D8866
:1026800006EA05252A434EF6FF752B404DF6FF75E9
:102690002B408D8906EA05152B43CD8906EA0515E1
:1026A0002B4383808483CD888587028470BD00009E
:1026B000002C0140003401400A460021818B4FF676
:1026C000F7731940114381837047000070B50022F1
:1026D00000230024058C4EF6FF7635400584038CDC
:1026E0008488828B48F6FF752A404FF6FF452A40C2
:1026F0000D884FF6FF7606EA05252A434DF6FF754D
:102700002B400D8906EA05352B434D8806EA053531
:102710002B430B4DA84202D00A4DA84208D14BF6DC
:10272000FF752C408D894FF6FF7606EA85152C4300
:1027300084808283CD88A0F84050038470BD00005F
:10274000002C0140003401400A460021818B4FF2E9
:10275000FF7319404FF6FF7303EA02231943818385
:1027600070470000002202881D4B98420ED01D4B7E
:1027700098420BD0B0F1804F08D01B4B984205D047
:102780001A4B984202D01A4B984204D14FF68F73DD
:102790001A404B881A43174B984207D0164B984261
:1027A00004D04FF6FF431A40CB881A4302808B882F
:1027B00083850B8803850A4B98420BD0094B9842BE
:1027C00008D00E4B984205D00D4B984202D00D4BCD
:1027D000984201D10B7A038601238382704700005F
:1027E000002C01400034014000040040000800407B
:1027F000000C004000100040001400400040014068
:10280000004401400048014010B540F225516D4898
:1028100000F0EFF9002872D06A4800F0A5FAC1B2C2
:10282000694802780078401C674B187067488154EB
:1028300000787A2803D000201946087010BD62483D
:102840000078401E6149085C702800D0F6E75F48B8
:102850004078782808D15E4A5EA15C48FDF79CFC70
:1028600005205E490870A2E058484078652809D1E3
:10287000574B5B4A5BA15548FDF78EFC0420574936
:10288000087094E051484078792808D1504A58A1FE
:102890004E48FDF781FC06205049087087E04B4800
:1028A0004078722803D115204C4908707FE04748D2
:1028B0004078732803D116204849087077E04348D0
:1028C0004078312803D10920444908706FE03F481F
:1028D0004078322803D10A204049087067E03B481D
:1028E0004078332803D10C203C4908705FE037481A
:1028F0004078342804D10D203849087057E059E059
:1029000032484078352803D10E20344908704EE013
:102910002E484078362803D10F203049087046E011
:102920002A484078372803D110202C4908703EE00F
:1029300026484078382803D111202849087036E00D
:1029400022484078392803D11220244908702EE00B
:102950001E4840783E2803D113202049087026E005
:102960001A4840783C2803D114201C4908701EE006
:1029700016484078612803D100201849087016E0F5
:1029800012484078622803D10120144908700EE0F3
:102990000E484078632803D102201049087006E0F1
:1029A0000A484078642802D103200C4908700020AE
:1029B0000549087040F22551024800F0F2F800BFC6
:1029C0003CE70000004C0040180000207A02002084
:1029D000100000207A782C25647000004000002050
:1029E000140000207A6525642C2564700000000026
:1029F0007A792C256470000010B540F225511C48EE
:102A000000F0F7F860B31A4800F0AEF9C1B2194807
:102A100002780078401C174B1870174881540078D2
:102A20005E2803D000201946087010BD11480078B8
:102A3000401E1149085C5F2800D0F6E70E48407838
:102A4000502803D1FF200D49087006E00A4840785D
:102A500040B20A49087000F005FF002005490870DF
:102A600040F22551024800F09CF800BFDDE700006D
:102A70000038014019000020980200205100002079
:102A800010B540F227711C4800F0B3F8E0B11B48C4
:102A900002780078401C194B18701948815C164860
:102AA00000F067F940F22771134800F07AF81348F4
:102AB000007814490978884217D1002240F2277122
:102AC0000D4800F0C0F810E040F225510A4800F02F
:102AD00090F850B10849091D0988C8B2FEF7EEFA0E
:102AE00040F22551044800F05CF84FF45871024858
:102AF00000F057F810BD0000004400400000002026
:102B00005C0100200100002008B540F22551184862
:102B100000F06FF828B3164800F026F9C1B2154846
:102B200002780078401C134B1870134881540078C9
:102B3000282803D000201946087008BD0D480078E9
:102B4000401E0D49085C292800D0F6E70B48031FFA
:102B50000B4A0CA100900848FDF71EFB0020054918
:102B6000087040F22551024800F01BF800BFE4E76E
:102B7000004800401A000020AC0200204C00002059
:102B8000500000202825632C25642C256429000092
:102B900001F40072B2F5007F00D100BFCA43028089
:102BA000704710B50022002340F66A14A14200D1FC
:102BB00000BF0A1201249440A3B2DC43048010BD7C
:102BC00021B1828942F40052828104E082894DF66B
:102BD000FF731A408281704702460020B1F5007FE2
:102BE00000D100BF13880B400BB1012000E0002092
:102BF000704770B50246002400230025002040F6EF
:102C00006A16B14200D100BFC1F3421501F01F03A3
:102C1000012606FA03F3012D02D19689334006E01E
:102C2000022D02D1168A334001E0968A33400C12FD
:102C3000012606FA04F41688344013B10CB10120C1
:102C400000E0002070BDF0B50346002400260025FA
:102C5000002040F66A17B94200D100BF1846C1F300
:102C6000421401F01F06012707FA06F5012C01D1D5
:102C70000C3004E0022C01D1103000E014301AB105
:102C800007682F43076002E00768AF430760F0BDA5
:102C90002DE9F04786B005460E460024A24600BF47
:102CA000A1460027B08900B100BF2F462C8A4CF600
:102CB000FF700440F08804432C82AC894EF6F31078
:102CC0000440B08831890843718908430443AC81CA
:102CD000AC8A4FF6FF400440B0890443AC8201A89F
:102CE000FEF754FF1F48874202D1DDF810A001E033
:102CF000DDF80CA0A88900F4004040B10AEBCA003E
:102D000000EB0A1031684900B0FBF1F807E00AEB6C
:102D1000CA0000EB0A1031688900B0FBF1F86420AA
:102D2000B8FBF0F004012009642101FB1089A88997
:102D300000F4004040B1322000EBC900B0FBF1F0DC
:102D400000F00700044308E0322000EB0910642182
:102D5000B0FBF1F000F00F0004432C8106B0BDE899
:102D6000F08700000038014001468888C0F3080061
:102D70007047C1F3080282807047000070B50646B4
:102D80000C46002580213046FFF702FF16E000BF09
:102D900080213046FFF720FF0028F9D0615D3046E2
:102DA000FFF7E7FF00BF40213046FFF715FF00287F
:102DB000F9D0C0213046FFF7EBFE6D1C605D0028A6
:102DC000E5D121460148FDF7DDF970BDD8020020AC
:102DD00000BFFEE70FB4084B10B504A902AA039880
:102DE00000F0CEF8044602A9002000F060FC204666
:102DF00010BC5DF814FB0000AF36000802E008C804
:102E0000121F08C1002AFAD170477047002001E064
:102E100001C1121F002AFBD1704700002DE9FF5F9E
:102E2000DDE90220010DDDF838B0024318D044F688
:102E30001050A1F2FF3141430D140F98012820D00A
:102E4000A5EB0B00401C5FEA000A4FF00004474E60
:102E5000DFF81C91A046504616D5CAF1000728E0BD
:102E60000F98012443A2012808D0002100980F9B4D
:102E7000C0E90021C0E90243BDE8FF9F6FEA0B01F2
:102E8000F4E7CBF10000DEE7074612E0F80707D0D1
:102E90002246334640464946FDF71FFC8046894698
:102EA0002246334610461946FDF717FC04460E46E7
:102EB0007F10002FEAD1DDE90201BAF1000F42468E
:102EC0004B4602DAFDF709FC01E0FDF778FC044609
:102ED0000E460022284BFDF753FD03D84FF0FF307C
:102EE000014607E00022254B20463146FDF74EFB08
:102EF000FDF7DCFE102409E0002C0ADB0A22002387
:102F0000FDF79CFD019B30321A55641E50EA010208
:102F1000F2D1641C019AC4F1110314440F9A012ADE
:102F200003D0012208430DD10AE0084304D0002059
:102F30004FF0110B0F9080E7A3EB0B056D1E0DE01A
:102F40005B4504DD4FF0000205F1010504E003DA02
:102F50004FF00002A5F10105002AECD000980F996E
:102F6000C0E90231C0E9004586E7000000002440C6
:102F70000000F03F300000000000F0430000E03FA0
:102F80002DE9FF4F95B09B468946064600250FE286
:102F9000252877D100242746F84A0121059400E02E
:102FA000044316F8013F203B01FA03F01042F7D129
:102FB00030782A2811D06FF02F033078A0F130023A
:102FC000092A16D8059A44F0020402EB820203EBA8
:102FD00042021044761C0590EFE759F8042B059245
:102FE000002A03DA504244F40054059044F00204ED
:102FF000761C30782E2816D116F8010F44F0040400
:103000002A280DD06FF02F023078A0F13003092B61
:1030100009D807EB870302EB4303C718761CF3E7D5
:1030200059F8047B761C30786C280FD006DC4C28CD
:1030300017D068280DD06A2814D104E0742810D065
:103040007A280FD10DE044F400140AE044F480140F
:1030500001E044F440147278824202D104F58014F5
:10306000761C761C307866280BD013DC582877D075
:1030700009DC002875D04528F6D04628F4D047282A
:103080001AD19DE118E0632835D0642879D06528ED
:1030900012D195E1702873D008DC6728F1D0692837
:1030A0006FD06E280DD06F2806D1B5E073282CD0D4
:1030B000752875D0782874D05A46179990476D1C9A
:1030C00075E1C4F30250022809D003280DD0D9F8C5
:1030D000001004280DD00D6009F1040967E1D9F84A
:1030E0000010EA17C1E90052F6E7D9F800100D8088
:1030F000F2E70D70F0E719F8041B8DF800100020BE
:103100008DF80100EA46012003E059F804AB4FF0C6
:10311000FF3061074FF0000102D40DE008F101011A
:103120008846B9420FDA8045F8DB1AF80810002902
:10313000F4D108E008F1010188468142FADB1AF86F
:1031400008100029F6D105985B46A0EB0807214638
:103150003846179A00F094FA284400EB080507E077
:103160004DE029E10DE01AF8010B5A4617999047F6
:10317000B8F10108F7D25B4621463846179A13E1A9
:1031800042E00A220092C4F302524FF0000A022ADF
:1031900008D059F804CB032A4FEAEC710AD00DE0AD
:1031A00029E02AE009F1070121F00702F2E802C153
:1031B000914609E00FFA8CFC4FEAEC71042A03D126
:1031C0004FFA8CFC4FEAEC71002907DA0A4600211D
:1031D000DCF1000C61EB02012D2202E0220504D596
:1031E0002B228DF80420012203E0E20701D02022E7
:1031F000F7E7904659E00A2102E010220DE0102185
:103200004FF0000A00910BE010224FF0000A44F04A
:1032100004040827009203E008224FF0000A0092FD
:10322000C4F30252022A05D059F804CB0021032A24
:1032300008D009E009F1070121F00702F2E802C114
:10324000914605E01FFA8CFC042A01D10CF0FF0C1A
:103250004FF00008220728D5702806D0009B83F085
:10326000100353EA0A0305D00EE040228DF8042033
:10327000012208E05CEA010206D030228DF8042029
:103280008DF8050002229046009B83F0080353EA64
:103290000A030AD15CEA010201D1620705D5302296
:1032A0008DF804204FF001087F1E582804D034A068
:1032B00003900EA802900DE036A0F9E75346604651
:1032C000009AFDF7BBFB84460398825C0298401E7F
:1032D000029002705CEA0100F0D1029806A9081A77
:1032E00000F1200A600702D524F4803400E00127B1
:1032F000574502DDA7EB0A0000E0002000EB0A01C1
:10330000009005984144401A0590E00306D45B46BE
:103310002146179A059800F0B3F90544002706E006
:1033200001A85A46C05D179990476D1C7F1C474500
:10333000F6DBE0030CD55B462146179A059800F0B2
:103340009FF9054404E030205A46179990476D1CB8
:103350000099481E00900029F5DC08E002980299C7
:103360005A460078491C0291179990476D1CBAF192
:103370000001AAF1010AF1DC65E100000928010061
:1033800030313233343536373839616263646566DB
:10339000000000003031323334353637383941429D
:1033A000434445460000000000F058F90544761CEF
:1033B000307800287FF4ECAD19B02846BDE8F08FD6
:1033C000620700D4062709F1070222F0070CFCE887
:1033D0000223E14603F000485FEA080C02D00FF236
:1033E000702C0DE05FEA045C02D50FF2682C07E058
:1033F0005FEAC47C02D00FF2602C01E0AFF2700CE7
:103400004FF0FF3823F00043CDF850C065280CD0B2
:1034100006DC452809D046281DD047283DD13DE08F
:10342000662818D067287ED138E00021112F01DBF3
:10343000112000E0781CCDE9000106A90EA8FFF7D5
:10344000EDFCDDE90F010E9A03910021009207F1D6
:10345000010A04914DE04FF000400097CDE90110C2
:1034600006A90EA8FFF7DAFCDDE90F0203920E9B16
:1034700011990022DDF80CA00093049211B9791C77
:1034800000EB010AB7EB0A0004D4C0F1FF3007F1EA
:10349000010A0490AAEB0700019044E0012F00DA32
:1034A00001270021112F01DD112000E03846CDE970
:1034B000000106A90EA8FFF7B1FCDDE90F010E9A85
:1034C0000391002104910092BA4621070CD403997C
:1034D000514500DA8A46BAF1010F05DD009AAAF1DA
:1034E0000101515C302908D0B84202DA10F1040F12
:1034F00006DA0121CDE9011015E0AAF10101E9E7A1
:10350000002805DC049901440491AAEB000102E0C3
:10351000411C514500DD8A460499401A401C019027
:103520004FF000400290200704D40198504501DB81
:10353000CDF8048000208DF84F0002980DF14F0760
:10354000B0F1004F25D02B200E9002984FF00208CA
:1035500000280CDA404202902D200E9007E00A214C
:103560000298FDF755FA3031029007F8011DB8F1C5
:103570000001A8F10108F2DC02980028EFD1791EC1
:103580000E980870307800F0200040F0450007F8F1
:10359000020D12A8C01B00F107081498007800B1B2
:1035A000012000EB0A01019801EBE071059841440C
:1035B000401A401E0590E00306D45B462146179A48
:1035C000059800F05DF805441498007818B15A4643
:1035D000179990476D1CE00324D55B462146179A46
:1035E000059800F04DF805441CE00498002807DB1E
:1035F000DDE90301884203DD0098405C179901E092
:10360000179930205A469047049805F10105401C4F
:1036100004900198401E019004D12E205A4617991B
:1036200090476D1CBAF10001AAF1010ADDDC05E04A
:1036300017F8010B5A46179990476D1CB8F1000115
:10364000A8F10108F4DC5B462146179A0598ABE621
:103650002D0000002B000000200000002DE9F041AB
:10366000044600251E461746880404D405E0394662
:103670002020B0476D1C641EF9D52846BDE8F081B6
:103680002DE9F041044600251E469046C80301D5A9
:10369000302700E02027880404D505E0414638465D
:1036A000B0476D1C641EF9D52846BDE8F0810A6854
:1036B000531C0B60107070474FF0E021096921F036
:1036C00004014FF0E0221161C21700EB5272C2F305
:1036D000C702074B1A701946097801EB4102C2EB89
:1036E000C1114FF6FF7202EAC101024A1180704710
:1036F0000C0000200E00002001460D4A12884A43AB
:103700004FF0E0235A6100229A6101221A6100BF42
:103710004FF0E022106900F001021AB100F480328B
:10372000002AF5D000224FF0E0231A619A61704719
:103730000E00002045494979012910D144490988E2
:10374000491E444A32F8211089B2434A1180121F9F
:103750001180414A08321180121F11800EE03E4A4A
:103760000C3A118801EBD17252103B4B1A801B1F8F
:103770001A80394B08331A801B1F1A80032837D050
:1037800005DC48B1012815D002285BD120E00C28C7
:103790003ED00D2856D148E00021304A1160304A11
:1037A000C2F8801101212D4A083A11602C4AC2F852
:1037B000B01148E00121294A1160294AC2F880115C
:1037C0000021264A083A1160254AC2F8B0113AE0B1
:1037D0000021224A11600121214AC2F880110021F2
:1037E0001E4A083A116001211D4AC2F8B0112AE0B0
:1037F00001211A4A11600021194AC2F880110121E1
:10380000164A083A11600021154AC2F8B0111AE0B0
:103810000021124A1160124AC2F880110F4A083A78
:1038200011600F4AC2F8B0110DE001210B4A11607E
:103830000B4AC2F88011094A083A1160084AC2F8D6
:10384000B01100E000BF00BF704700001C00002066
:103850003800002098B5000838340140BC8121426E
:103860000080214242480078412803D10920414983
:10387000087078E03E480078422803D10A203D498C
:10388000087070E03A480078432809D10C20394983
:1038900008703948007840F040003749087062E00D
:1038A00033480078442809D10D2032490870324845
:1038B000007840F020003049087054E02C4800782F
:1038C000452809D10E202B4908702B48007840F07C
:1038D00010002949087046E0254800784C2809D195
:1038E0000F20244908702448007840F0F400224951
:1038F000087038E01E4800784D2809D110201D4975
:1039000008701D48007840F0F2001B4908702AE05A
:10391000174800784E2809D111201649087016481A
:10392000007840F0F100144908701CE0104800785D
:103930004A2803D112200F49087014E00C4800787F
:103940004B2806D113200B49087000200A49087043
:1039500009E007480078462805D114200549087079
:1039600000200549087000200149087070470000D8
:103970005100002040000020600000202DE9F047A9
:103980000446DFF8109101214348FFF719F90020A0
:10399000424948714820424908804FF47A70091D15
:1039A000088001203D49488061E00520FFF7A4FE22
:1039B0003C49B1F90400FCF771FF06464FF08E4117
:1039C000FCF7A6FD05463849FCF770FD374908604D
:1039D000084601682046FCF763FD81464846FCF72F
:1039E000A3FF05460022324BFCF7CAFF0CD2484623
:1039F000FCF79AFF074600222E4BFCF768FE0546AF
:103A0000FCF7D6FF814614E04846FCF78DFF0546DB
:103A10000022294BFCF79CFF0BD24846FCF784FFA1
:103A200007460022234BFCF7B1FD0546FCF7C0FF1B
:103A3000814600214846FCF7D7FF03D20C20FFF750
:103A400079FE07E000214846FCF7D8FF02D20D209E
:103A5000FFF770FE012112482838FEF7F2FC00BF84
:103A60000E48007B0028FBD000200C490873484614
:103A7000FCF75AFF21F0004105464FF033320F4B5F
:103A8000FCF77EFF91D300210348FFF799F8BDE8CA
:103A9000F08700000000A040004400401C0000200F
:103AA000283401400200002000003443540000206C
:103AB0000080664000807640008066C03333D33F8C
:103AC0000EB54820FFF7F8FD00F06CFE4FF496406D
:103AD00001F03EF84FF4E130FDF726FC4FF496403C
:103AE00001F0F0F84FF4E13001F086F8FDF7E8FB63
:103AF00048214FF6FF70FEF70FFC4FF4E15141F201
:103B00008830FEF7D5FBFEF7D5F8FDF76BFCFEA27B
:103B10002A210A20FDF76EFDFDA24A210A20FDF7A9
:103B200069FDFDA26A210A20FDF764FDFCA28A213D
:103B30000A20FDF75FFDFCA2AA210A20FDF75AFD2D
:103B4000FAA2CA210A20FDF755FD9BE3F848007848
:103B5000172875D2DFE810F01D03FC0207031203DB
:103B600028033803520374006B03740017004300EA
:103B70007500BD0005014D01930112025B028D022B
:103B8000C802EC02F402EB4840880090FCF78FFE7C
:103B90000290E84800880090FCF789FEE6A20190B8
:103BA000029900F019FF4FF4FA70FFF7A5FDE14804
:103BB000C0880090FCF77BFE0290DE488088009071
:103BC000FCF775FEDEA20190029900F005FFDEA170
:103BD000DE48FFF7D3F80B20D549087000BF01215C
:103BE000DB48FEF7EDFF22E0DA480078722807D0C4
:103BF000D8480078672803D0D6480078622816D1C4
:103C0000D4480278D4A1D648FFF7E4F8D148027826
:103C10008A215A20FDF758FCD149CC48FFF7AEF86D
:103C2000CF480021018081700020CA490870C04837
:103C300000780B28D8D00021C548FEF7C1FF08E363
:103C400006E3C848007840282FD1BA48C0883230EF
:103C50000090FCF723FE0290B6480089643800907B
:103C6000FCF71CFEB4A20190029900F0B5FEBE481C
:103C7000BE4908600121029000F00EFEAD48408967
:103C80000090FCF714FE0290AA4800890090FCF70F
:103C90000EFEA9A20190029900F09EFE032000F002
:103CA00045FCF020AF4908700FE0A2484089009021
:103CB000FCF7FDFD02909F4800890090FCF7F7FD9E
:103CC0009DA20190029900F087FE08209849087093
:103CD000BFE2A448007820282FD19648C08832300F
:103CE0000090FCF7DBFD0290924800896438009058
:103CF000FCF7D4FD90A20190029900F06DFE9A4865
:103D00009A4908600121029000F0C6FD8948C089E7
:103D10000090FCF7CCFD0290864800890090FCF7EB
:103D2000C6FD85A20190029900F056FE032000F026
:103D3000FDFBF0208B4908700FE07E48C0890090A1
:103D4000FCF7B5FD02907B4800890090FCF7AFFDC1
:103D500079A20190029900F03FFE08207449087092
:103D600077E28048007810282FD17248C08832301E
:103D70000090FCF793FD02906E4800896438009033
:103D8000FCF78CFD6CA20190029900F025FE7648AC
:103D9000764908600121029000F07EFD6548808927
:103DA0000090FCF784FD0290624800890090FCF7C7
:103DB0007EFD61A20190029900F00EFE032000F04A
:103DC000B5FBF020674908700FE05A4880890090E1
:103DD000FCF76DFD0290574800890090FCF767FDE5
:103DE00055A20190029900F0F7FD08205049087093
:103DF0002FE25C480078F4282FD14E48C08A6438FE
:103E00000090FCF74BFD02904A480089643800900E
:103E1000FCF744FD4AA20190029900F0DDFD5448F0
:103E2000524908600121029000F036FD4148C08AE5
:103E30000090FCF73CFD02903E48008A0090FCF7A1
:103E400036FD3FA20190029900F0C6FD032000F06C
:103E50006DFB0F20434908700DE03648008A019041
:103E6000FCF725FD02904348006935A20146019008
:103E7000029800F0B1FD08202D490870E9E13948A9
:103E80000078F2282FD12B48C08A64380090FCF7C4
:103E900005FD02902748008964380090FCF7FEFC7D
:103EA00027A20190029900F097FD31482F49086040
:103EB0000121029000F0F0FC1E48C08A0090FCF73F
:103EC000F6FC02901B48808A0090FCF7F0FC1CA2D4
:103ED0000190029900F080FD032000F027FB0F20E5
:103EE000204908700DE01348808A0190FCF7DFFC40
:103EF00002902048006912A201460190029800F049
:103F00006BFD08200A4937E05461736B3A000000EA
:103F1000617869735F583A00617869735F593A0054
:103F2000435247423A00000054583A0052783A004F
:103F300040000020C0020020795F6669727374003F
:103F4000785F6669727374005E515F0000380140EB
:103F500000480040500000205E25635F0000000024
:103F600042000020600000200000B4425800002001
:103F7000000034431C00002008706AE1C248007849
:103F8000F12831D1C148C08A64380090FCF786FC22
:103F90000290BE48008964380090FCF77FFCAFF2C5
:103FA00060020190029900F017FDB948B949086014
:103FB0000121029000F070FCB448C08A0090FCF728
:103FC00076FC0290B148408A0090FCF770FCAFF29A
:103FD00090020190029900F0FFFC032000F0A6FA85
:103FE0000F20A94908700EE0A848408A0190FCF70C
:103FF0005EFC0290A8480069AFF2BC020146019045
:10400000029800F0E9FC0820A449087021E19F48CB
:10401000C08A64380090FCF741FC02909B480089FC
:1040200064380090FCF73AFCAFF2F4020190029978
:1040300000F0D2FC9A48974908600121029000F0F4
:104040002BFC924880890090FCF731FC02908F484D
:1040500000890090FCF72BFCAFF22412019002992A
:1040600000F0BAFC032000F061FA08208B490870C8
:10407000EFE08648C08832300090FCF70FFC0290D9
:104080008248008964380090FCF708FCAFF25012B7
:104090000190029900F0A0FC00207E4908600121F7
:1040A000029000F0F9FB7948C0880090FCF7FFFB14
:1040B0000290764880880090FCF7F9FBAFF28012FE
:1040C0000190029900F088FC7048C0880290FCF7CB
:1040D000EEFB71490861AFF290117248FEF74EFE97
:1040E0000B206E490870B4E06848C08A64380190BB
:1040F000FCF7D4FBAFF2C012014602906A4800F010
:104100006BFC6A48634908600121029000F0C4FB1F
:10411000AFF2DC126649002000F05EFCAFF2E8125C
:104120000021084600F058FC08205C49087090E027
:104130005221032000F0F8F807205849087088E061
:104140005321032000F0F0F807205449087080E064
:104150005348504908600121029000F09DFB072060
:104160004E49087075E04A484A49086001210290AA
:1041700000F092FB0720494908706AE04B48454926
:1041800008600121029000F087FB07204349087076
:104190005FE000203F4908600121029000F07CFBB5
:1041A00007203E49087054E042480068FCF776FB5F
:1041B00002904148007801460190029800F07EF894
:1041C00007203649087044E03A480068FCF766FB6F
:1041D000019031484069014600900198FCF70EF9C2
:1041E00002902D480069AFF2A82201460190029882
:1041F00000F0F2FB0720294908702AE02D480068EA
:10420000FCF74CFB0190244800690146009001989E
:10421000FCF7F4F8029020484069AFF2E4220190E4
:10422000029900F0D9FB07201C49087011E0AFF299
:10423000E8211C48FEF7A2FD6420FFF75DFAAFF20B
:10424000F8211848FEF79AFD07201449087000E08D
:1042500000BF00BF104840690190FCF72DFB05230B
:1042600002464A2102907A20FDF79EF90A48006929
:104270000190FCF721FB052302466A2102907A2077
:10428000FDF792F962E4000060000020C002002007
:1042900000003443580000201C0000204000002093
:1042A0000000B442003801400000A04200008743F3
:1042B0000000934310000020140000202DE9F84F67
:1042C000044689460120134948714880022012495A
:1042D00008804846FFF72EFA0E490888FCF7E7FAEF
:1042E00021460090FCF7E2F883460C49FCF7DEF823
:1042F0008246FCF719FB0746094A0A4BFCF75FFAAE
:104300000546FCF7F2FA03498860FDF7C1FDBDE8F8
:10431000F88F00001C0000202834014000004843B2
:10432000A43A55297A6A6F402DE9F04F9DB0814635
:104330000E4600217348FEF784F801217248FEF70B
:104340003FFC72480021016041600024CBE0002561
:104350001AE004E06E480078632800D100E0F9E735
:1043600000BF00206A49087068490868FCF796FA9F
:1043700010A941F8250065494868FCF78FFA06A99D
:1043800041F82500681CC5B20A2DE2DB1CB94FF0CC
:104390007E501A9006E0012C02D15E481A9001E08E
:1043A0005D481A9010A8FDF72BFB0746FCF7BCFAF6
:1043B000CDE902011A98FCF7B7FA07460022574BDD
:1043C000FCF78BF9CDE90001DDE90223FCF785F963
:1043D00082460022524BFCF7D9F8CDE90401FCF7E4
:1043E00084FA1B9006A8FDF70BFB8246FCF79CFAAB
:1043F000CDE900011A98FCF797FA82460022474B54
:10440000FCF76BF90746DDE90023FCF766F90022AB
:10441000434BCDE90201FCF7B9F8CDE90401FCF703
:1044200064FA1C901C98002807DB1C98FCF736FAED
:104430000746032100F062F907E01C994842FCF7A7
:104440002DFA0746022100F059F936480068FFF7B7
:1044500095FA1B98002807DB1B98FCF71FFA074604
:10446000012100F04BF907E01B994842FCF716FACE
:104470000746002100F042F92A480068FFF77EFA5B
:10448000522E16D11C98FCF709FA074626484169B6
:104490003846FCF708F8244948611B98FCF7FEF9F8
:1044A0000746214801693846FBF7FDFF1E490861B0
:1044B00017E0532E15D11B98FCF7F0F907461A4860
:1044C00041693846FBF79AFF174948611C98FCF789
:1044D000E5F90746144801693846FBF7E4FF12493D
:1044E0000861601CC4B24C45FFF631AF002106489C
:1044F000FEF766FB01210348FDF7A3FF1DB0BDE8F1
:10450000F08F0000001000400048004048000020EC
:1045100050000020CDCC4C3F9A99193F0000E43F59
:104520000000E03F580000201C0000202DE9F04F63
:104530009DB0824600216548FDF783FF0121644854
:10454000FEF73EFB634800210160416062A16348C1
:10455000FEF714FC00BF624890F90000401C0028E0
:10456000F9D15F4908704FF47A70FFF7C5F800245D
:104570009DE04FF000091CE004E05A4800786328F1
:1045800000D100E0F9E700BF00205649087051490A
:104590000868FCF783F910A941F829004D494868DB
:1045A000FCF77CF906A941F8290009F1010000F0A7
:1045B000FF09B9F10A0FDFDB14B94FF07E5B06E0AB
:1045C000012C02D1DFF820B101E0DFF820B110A802
:1045D000FDF716FA0190FCF7A7F9CDE9020158465C
:1045E000FCF7A2F90022424BCDE90001FCF775F877
:1045F0000746DDE90223FCF770F800223D4BCDE9C8
:104600000401FBF7C3FF0546FCF76FF91A9006A8F3
:10461000FDF7F6F90546FCF787F9CDE902015846A2
:10462000FCF782F905460022314BFCF756F8CDE93C
:104630000001DDE90223FCF750F800222D4BCDE903
:104640000401FBF7A3FF0746FCF74FF91B901B98EB
:10465000002807DB1B98FCF721F90546032100F031
:104660004DF807E01B994842FCF718F9054602216E
:1046700000F044F820480068FFF780F91A980028F5
:1046800007DB1A98FCF70AF90546012100F036F815
:1046900007E01A994842FCF701F90546002100F0AD
:1046A0002DF815480068FFF769F9601CC4B254453D
:1046B000FFF65FAF00210648FEF782FA01210348AA
:1046C000FDF7BFFE1DB0BDE8F08F000000100040F8
:1046D00000480040480000205E495F00003801406B
:1046E0005100002050000020CDCC4C3F9A99193F3A
:1046F0000000E43F0000E03F580000202DE9F84FA3
:104700000446894601202049487148801F492046B7
:10471000FCF774F903D80C201D49088010E01B49F0
:104720002046FCF761F908D21A492046FCF766F9E1
:1047300003D818201649088002E024201449088074
:104740001820134908804846FEF7F4FF0E490888F0
:10475000FCF7ADF821460090FBF7A8FE83460E4912
:10476000FBF7A4FE8246FCF7DFF807460B4A0C4B2A
:10477000FCF725F80546FCF7B8F803498860FDF713
:1047800087FBBDE8F88F00001C0000200000A0415E
:10479000283401400000204100004843A43A552934
:1047A0007A6A6F4030B54FF4FA74374D2C80A024EC
:1047B0006C8040F2DC54AC806424EC804FF4FA60EE
:1047C0004FF4667140F2CE424FF4E1632FA430A55E
:1047D000AC420CD12C4C20816181648996342A4DE5
:1047E000EC812C46648904F59674AC811CE027A406
:1047F00028A5AC420CD1244C208161816489963477
:10480000214DAC812C46648904F59674EC810BE053
:104810001D4C2081A181A48996341B4DEC812C462E
:10482000A48904F596746C8118A419A5AC420CD126
:10483000154C2282E382248A963C134DAC822C468E
:10484000248AA4F596746C821CE010A411A5AC42D5
:104850000CD10D4C2282E382248A963C0A4D6C8254
:104860002C46248AA4F59674AC820BE0064C628236
:10487000E382648A963C044DAC822C46648AA4F59B
:1048800096742C8230BD0000C002002042475200C6
:1048900052474200524247002DE9F04704468A46FB
:1048A00044480068FBF7FAFF05462146FBF7FBFD8D
:1048B00081464846FCF738F8054600223E4BFCF797
:1048C0005FF80CD24846FCF72FF8074600223B4B16
:1048D000FBF7FDFE0546FCF76BF8814614E0484601
:1048E000FCF722F805460022354BFCF731F80BD2D5
:1048F0004846FCF719F807460022304BFBF746FE06
:104900000546FCF755F8814600214846FCF76CF84F
:1049100004D20C212B48FFF7D1FC08E000214846C7
:10492000FCF76CF803D20D212648FFF7C7FC2046A0
:10493000FBF7C2FF1F49086000212046FCF754F82E
:1049400009D1002020490870012048700220887099
:104950000320C8702BE01D492046FCF745F809D11B
:104960000220194908700320487001208870002037
:10497000C8701CE016492046FCF736F809D1012022
:104980001149087000204870032088700220C87008
:104990000DE010492046FCF727F808D103200A490A
:1049A000087002204870002088700120C870BDE89F
:1049B000F08700003C0000200080664000807640C8
:1049C000008066C00000A643340000200000B4420E
:1049D00000003443000087432DE9F04707460C46AA
:1049E000904600215248FDF72CFD52484169384657
:1049F000FBF756FD05464F4801692046FBF750FD81
:104A000006464DA14046FBF7AFFB002840D10021F0
:104A10002846FBF7F3FF05D2494801782846FFF7FF
:104A20004DFC0BE000212846FBF7DEFF06D285F0A7
:104A30000049434841784846FFF740FC002128469A
:104A4000FBF7D2FF03D03F480068FEF797FF002135
:104A50003046FBF7D3FF05D23948C1783046FFF71F
:104A60002DFC0BE000213046FBF7BEFF06D286F09E
:104A70000049334881784846FFF720FC0021304642
:104A8000FBF7B2FF4AD02F480068FEF777FF45E0FA
:104A90002DA14046FBF768FB00283FD1002130469E
:104AA000FBF7ACFF05D22648C1783046FFF706FC7D
:104AB0000BE000213046FBF797FF06D286F0004955
:104AC0001F4881784846FFF7F9FB00213046FBF785
:104AD0008BFF03D01B480068FEF750FF00212846DB
:104AE000FBF78CFF05D2164801782846FFF7E6FB56
:104AF0000BE000212846FBF777FF06D285F000493E
:104B00000F4841784846FFF7D9FB00212846FBF7BC
:104B10006BFF03D00B480068FEF730FF0548476184
:104B2000046101210248FDF78CFCBDE8F08700001C
:104B3000001000401C000020785F666972737400EA
:104B40003400002058000020795F66697273740099
:104B500010B586B00446012144F20400FDF706F8C2
:104B60004FF4A060FCF7E6FF4FF40070ADF81400BE
:104B700003208DF8160018208DF8170005A91C4891
:104B8000FCF7C7FA4FF48060ADF8140004208DF8EC
:104B9000170005A91648FCF7BCFA25208DF800007F
:104BA00000208DF801008DF8020001208DF803002F
:104BB0006846FCF787FF01940020ADF80800ADF8C7
:104BC0000A00ADF80C00ADF810000C20ADF80E0096
:104BD00001A90848FEF75CF8012240F2255105487A
:104BE000FEF731F801210348FDF7EAFF06B010BDDA
:104BF000000801400038014010B586B004464FF46B
:104C0000A060FCF797FF01211020FCF7AFFF4FF4E5
:104C10008060ADF8140018208DF8170003208DF87F
:104C2000160005A92448FCF774FA4FF40060ADF8AB
:104C3000140004208DF8170005A91F48FCF769FA35
:104C40000121C804FCF782FF1C48006940F40020E1
:104C50001A4908610846006920F40020086101949F
:104C60000020ADF80800ADF80A00ADF80C00ADF872
:104C700010000C20ADF80E0001A91148FEF708F84D
:104C800034208DF8000000208DF8010002208DF8FE
:104C9000020001208DF803006846FCF713FF012293
:104CA00040F225510648FDF7CEFF01210448FDF7EB
:104CB00087FF06B010BD0000001001400010024048
:104CC000004C004010B586B0044601210820FCF7D6
:104CD0004DFF01218804FCF739FF4FF4A060FCF779
:104CE00029FF4FF48060ADF8140003208DF8160002
:104CF00018208DF8170005A91C48FCF70AFA4FF494
:104D00000060ADF8140004208DF8170005A91748BD
:104D1000FCF7FFF927208DF8000000208DF8010036
:104D200003208DF8020001208DF803006846FCF78F
:104D3000C9FE01940020ADF80800ADF80A00ADF8F6
:104D40000C00ADF810000C20ADF80E0001A90848C9
:104D5000FDF79EFF012240F225510548FDF773FF44
:104D600000210348FDF72CFF06B010BD000C0140E8
:104D700000480040000000000000FC070400FC03A5
:104D80001402A40166009E0700000000B7B40000F2
:104D90000000000000000000000000000000000013
:104DA00000000000000000006000FE07FA0316018A
:104DB000FF0FFC030402FC0300000000BFCD000055
:104DC00000000000000000000000000000000000E3
:104DD000000000000000000000017F0184013F018D
:104DE0004C01F6070501040100000000BFC60000E9
:104DF00000000000000000000000000000000000B3
:104E0000000000000000000000008400FF07840094
:104E1000FC032703C400370700000000BCBC0000EF
:104E20000000000000000000000000000000000082
:104E30000000000000000000000000000000000072
:104E40000000000000000000000000000000000062
:104E50000000000000000000000000000000000052
:104E60000000000000000000000000000000000042
:104E70000000000000000000000000000000000032
:104E80000000000000000000000000000000000022
:104E90000000000000000000000000000000000012
:104EA0000000000000000000000000000000000002
:104EB00000000000000000000000000000000000F2
:104EC00000000000000000000000000000000000E2
:104ED00000000000000000000000000000000000D2
:104EE00000000000000000000000000000000000C2
:104EF00000000000000000000000000000000000B2
:104F000000000000000000000000000000000000A1
:104F10000000000000000000000000000000000091
:104F20000000000000000000000000000000000081
:104F30000000000000000000000000000000000071
:104F40000000000000000000000000000000000061
:104F5000000000000000000000000000FC1F040032
:104F6000FC0F140824046402860162071D38000047
:104F700000000000B7B400000000000000000000C6
:104F80000000000000000000000000000000000021
:104F9000000000000000000000000000C000FE1F34
:104FA000F2071802E6011F3EF8070804F8070000A0
:104FB00000000000BFCD0000000000000000000065
:104FC00000000000000000000000000000000000E1
:104FD0000000000000000000000000000008BE0902
:104FE000080BFE089809EC3F0A08080808080000AA
:104FF00000000000BFC6000000000000000000002C
:1050000000000000000000000000000000000000A0
:105010000000000000000000000000000402FF3F4C
:105020000402E41F4C108708040784077738000047
:1050300000000000BCBC00000000000000000000F8
:105040000000000000000000000000000000000060
:105050000000000000000000000000000000000050
:105060000000000000000000000000000000000040
:105070000000000000000000000000000000000030
:105080000000000000000000000000000000000020
:105090000000000000000000000000000000000010
:1050A0000000000000000000000000000000000000
:1050B00000000000000000000000000000000000F0
:1050C00000000000000000000000000000000000E0
:1050D00000000000000000000000000000000000D0
:1050E00000000000000000000000000000000000C0
:1050F00000000000000000000000000000000000B0
:10510000000000000000000000000000000000009F
:10511000000000000000000000000000000000008F
:10512000000000000000000000000000000000007F
:10513000000000000000000000000000000000006F
:10514000000000000000000000000000000000005F
:10515000000000000000000000000000000000004F
:10516000000000000000000000000000000000003F
:10517000000000000000000000000000000000002F
:10518000000000000000000000000000000000001F
:10519000000000000000000000000000000000000F
:1051A00000000000000000000000000000000000FF
:1051B00000000000000000000000000000000000EF
:1051C00000000000000000000000000000000000DF
:1051D00000000000000000000000000000000000CF
:1051E00000000000E003F81F00080000080000F8BD
:1051F000FF0148800188C000086100083600041CD7
:105200000084E300720007000000000000000000BE
:10521000B7B4000000000000000000000000000023
:10522000000000000000000000000000000000007E
:10523000000000000000000000000000000000006E
:10524000000000000000000000000000000000005E
:10525000000000000000000000000000010000034A
:1052600000FEFF01620001F87F007E3000800F0029
:105270007FF003F87F00084000F87F00084000003E
:105280000000000000000000BFCD00000000000092
:10529000000000000000000000000000000000000E
:1052A00000000000000000000000000000000000FE
:1052B00000000000000000000000000000000000EE
:1052C00000000000000000000000000000000000DE
:1052D000000000E040001E4600104C00105800FE88
:1052E0004300104600784C00DC400014F003924F5D
:1052F000001040001040000000000000000000000E
:10530000BFC6000000000000000000000000000018
:10531000000000000000000000000000000000008D
:10532000000000000000000000000000000000007D
:10533000000000000000000000000000000000006D
:10534000000000000000000000000008100008102D
:1053500000FFFF03081000081000E8FF011C020115
:105360000B8600086C00081800086F00EF8003002F
:105370000000000000000000BCBC000000000000B5
:10538000000000000000000000000000000000001D
:10539000000000000000000000000000000000000D
:1053A00000000000000000000000000000000000FD
:1053B00000000000000000000000000000000000ED
:1053C000000000FCFF0300000000000000000000DF
:1053D0000000F8FF010000000000000000000000D5
:1053E00000000000FEFF07000000000000000000B9
:1053F000C8FD2000000000000000000000000000C8
:10540000000000000000000000000000000000009C
:10541000000000000000000000000000000000008C
:10542000000000000000000000000000000000007C
:105430000000000000000000000000102000FEFF3F
:1054400001102000F03F00102000F03F001020006D
:10545000FFFF03102100FCFF00030103FEFF01001A
:105460000000000000000000BBF920000000000068
:10547000000000000000000000000000000000002C
:10548000000000000000000000000000000000001C
:10549000000000000000000000000000000000000C
:1054A00000000000000000000000000000000000FC
:1054B000000000400000F01F00181800040C00FF5E
:1054C000FF00048200048200FCFF0004800004004E
:1054D00000040002F8FF01000000000000000000CE
:1054E000C9AB200000000000000000000000000028
:1054F00000000000000000000000000000000000AC
:10550000000000000000000000000000000000009B
:10551000000000000000000000000000000000008B
:10552000000000000000000000000000000000007B
:10553000000000000000000000000000000000006B
:10554000000000000000000000000000000000005B
:10555000000000000000000000000000000000004B
:10556000000000000000000000000000000000003B
:10557000000000000000000000000000000000002B
:10558000000000000000000000000000000000001B
:10559000000000000000000000000000000000000B
:1055A00000000000000000000000000000000000FB
:1055B00000000000000000000000000000000000EB
:1055C00000000000000000000000000000000000DB
:1055D00000000000000000000000000000000000CB
:1055E00000000000000000000000000000000000BB
:1055F00000000000000000000000000000000000AB
:10560000000000000000000000000000000000009A
:10561000000000000000000000000000000000008A
:10562000000000000000000000000000000000007A
:10563000000000000000000000000000000000006A
:10564000000000000000000000000000000000005A
:10565000000000000000000000000000000000004A
:10566000000000000000000000000000000000003A
:10567000000000000000000000000000000000002A
:10568000000000000000000000000000000000001A
:1056900000007FF8FF00180000180000180000F854
:1056A000FF3F98013098031818030818060C180CCF
:1056B000060818030CF0000CF001061C0786033CDA
:1056C0007300E0000000000000000000B7B400001C
:1056D00000000000000000000000000000000000CA
:1056E00000000000000000000000000000000000BA
:1056F00000000000000000000000000000000000AA
:105700000000000000000000000000000000000099
:105710000000000000000000000000000000000089
:10572000001000007000FCFFFF0C07C08C03C0C01D
:10573000FF1FF0030E1C8E03007800C0C7073F0058
:10574000F8E0FF1F600018600018600018E0FF1FFD
:10575000600018000000000000000000BFCD000045
:105760000000000000000000000000000000000039
:105770000000000000000000000000000000000029
:105780000000000000000000000000000000000019
:105790000000000000000000000000000000000009
:1057A00000000000000000000000000000000000F9
:1057B0000000188007187E3018606018608019603B
:1057C000001BFE0718601818F0711870C3186806DF
:1057D000186C00FF66FE1862001860001860001860
:1057E000600018000000000000000000BFC60000BC
:1057F00000000000000000000000000000000000A9
:105800000000000000000000000000000000000098
:105810000000000000000000000000000000000088
:105820000000000000000000000000000000000078
:105830000000000000000000000000000000000068
:1058400030000330000330000330FCFFFF01033061
:10585000000330000330FE7FF019603F38303030F5
:105860001830600C30C00630800330E00E303878DD
:105870001F07C0000000000000000000BCBC0000CA
:105880000000000000000000000000000000000018
:105890000000000000000000000000000000000008
:1058A00000000000000000000000000000000000F8
:1058B00000000000000000000000000000000000E8
:1058C00000000000000000000000000000000000D8
:1058D0000000C0F8FFC018C0CC18C0CCF8FFCC182E
:1058E000C0CC180CCC180CCCD8FFCCD8CCCCD8CC95
:1058F000CCD8CCCCCCCCC0CCCCC004FCC0060C7E6C
:10590000000000000000000000000000CBA220000A
:105910000000000000000000000000000000000087
:105920000000000000000000000000000000000077
:105930000000000000000000000000000000000067
:105940000000000000000000000000000000000057
:105950000000000000000000000000000000000047
:10596000000000F8FF7F180060180060F8FF7F1843
:105970000666180C06180803D8FF7F180C06180CCA
:1059800006F8FFFF0C0C060C0C06040606060306C0
:10599000030106000000000000000000C6C1200056
:1059A00000000000000000000000000000000000F7
:1059B00000000000000000000000000000000000E7
:1059C00000000000000000000000000000000000D7
:1059D00000000000000000000000000000000000C7
:1059E00000000000000000000000000000000000B7
:1059F0000200C084FFCC9CC1CC88C1CC80D9CC83B0
:105A0000D9CC8ED9CC98D9CC80D9CC80D9CC88D9D6
:105A1000CC98CDCC0C0CCC0C36C00C63C0C6C1C02D
:105A200074807D000000000000000000B2E2200051
:105A30000000000000000000000000000000000066
:105A40000000000000000000000000000000000056
:105A50000000000000000000000000000000000046
:105A60000000000000000000000000000000000036
:105A70000000000000000000000000000000000026
:105A800002001B0C007318004338000380FFFF0066
:105A900000031F000318000398FF031818021818CA
:105AA00006981806D8188678188C38F88D9C0F98A8
:105AB0000800F0000000000000000000CAD4200030
:105AC00000000000000000000000000000000000D6
:105AD00000000000000000000000000000000000C6
